{
	".deps/contracts/EtherSwap.sol": {
		"EthSwap": {
			"abi": [
				{
					"inputs": [
						{
							"internalType": "contract ERC20",
							"name": "_token",
							"type": "address"
						}
					],
					"stateMutability": "nonpayable",
					"type": "constructor"
				},
				{
					"anonymous": false,
					"inputs": [
						{
							"indexed": false,
							"internalType": "uint256",
							"name": "amount",
							"type": "uint256"
						},
						{
							"indexed": false,
							"internalType": "uint256",
							"name": "rate",
							"type": "uint256"
						},
						{
							"indexed": false,
							"internalType": "uint256",
							"name": "etherAmount",
							"type": "uint256"
						}
					],
					"name": "Debug",
					"type": "event"
				},
				{
					"inputs": [],
					"name": "buyToken",
					"outputs": [],
					"stateMutability": "payable",
					"type": "function"
				},
				{
					"inputs": [],
					"name": "getBalanceOfContract",
					"outputs": [
						{
							"internalType": "uint256",
							"name": "",
							"type": "uint256"
						}
					],
					"stateMutability": "view",
					"type": "function"
				},
				{
					"inputs": [],
					"name": "getMsgSender",
					"outputs": [
						{
							"internalType": "address",
							"name": "",
							"type": "address"
						}
					],
					"stateMutability": "view",
					"type": "function"
				},
				{
					"inputs": [],
					"name": "getThis",
					"outputs": [
						{
							"internalType": "address",
							"name": "",
							"type": "address"
						}
					],
					"stateMutability": "view",
					"type": "function"
				},
				{
					"inputs": [],
					"name": "getToken",
					"outputs": [
						{
							"internalType": "address",
							"name": "",
							"type": "address"
						}
					],
					"stateMutability": "view",
					"type": "function"
				},
				{
					"inputs": [],
					"name": "rate",
					"outputs": [
						{
							"internalType": "uint256",
							"name": "",
							"type": "uint256"
						}
					],
					"stateMutability": "view",
					"type": "function"
				},
				{
					"inputs": [
						{
							"internalType": "uint256",
							"name": "_amount",
							"type": "uint256"
						}
					],
					"name": "sellToken",
					"outputs": [],
					"stateMutability": "payable",
					"type": "function"
				},
				{
					"inputs": [],
					"name": "token",
					"outputs": [
						{
							"internalType": "contract ERC20",
							"name": "",
							"type": "address"
						}
					],
					"stateMutability": "view",
					"type": "function"
				}
			],
			"devdoc": {
				"kind": "dev",
				"methods": {},
				"version": 1
			},
			"evm": {
				"assembly": "    /* \".deps/contracts/EtherSwap.sol\":179:2916  contract EthSwap {... */\n  mstore(0x40, 0x80)\n    /* \".deps/contracts/EtherSwap.sol\":364:368  5000 */\n  0x1388\n    /* \".deps/contracts/EtherSwap.sol\":345:368  uint public rate = 5000 */\n  0x01\n  sstore\n    /* \".deps/contracts/EtherSwap.sol\":524:583  constructor(ERC20 _token) {... */\n  callvalue\n  dup1\n  iszero\n  tag_1\n  jumpi\n  0x00\n  dup1\n  revert\ntag_1:\n  pop\n  mload(0x40)\n  sub(codesize, bytecodeSize)\n  dup1\n  bytecodeSize\n  dup4\n  codecopy\n  dup2\n  dup2\n  add\n  0x40\n  mstore\n  dup2\n  add\n  swap1\n  tag_2\n  swap2\n  swap1\n  tag_3\n  jump\t// in\ntag_2:\n    /* \".deps/contracts/EtherSwap.sol\":569:575  _token */\n  dup1\n    /* \".deps/contracts/EtherSwap.sol\":561:566  token */\n  0x00\n  dup1\n    /* \".deps/contracts/EtherSwap.sol\":561:575  token = _token */\n  0x0100\n  exp\n  dup2\n  sload\n  dup2\n  0xffffffffffffffffffffffffffffffffffffffff\n  mul\n  not\n  and\n  swap1\n  dup4\n  0xffffffffffffffffffffffffffffffffffffffff\n  and\n  mul\n  or\n  swap1\n  sstore\n  pop\n    /* \".deps/contracts/EtherSwap.sol\":524:583  constructor(ERC20 _token) {... */\n  pop\n    /* \".deps/contracts/EtherSwap.sol\":179:2916  contract EthSwap {... */\n  jump(tag_6)\n    /* \"#utility.yul\":88:205   */\ntag_8:\n    /* \"#utility.yul\":197:198   */\n  0x00\n    /* \"#utility.yul\":194:195   */\n  dup1\n    /* \"#utility.yul\":187:199   */\n  revert\n    /* \"#utility.yul\":334:460   */\ntag_10:\n    /* \"#utility.yul\":371:378   */\n  0x00\n    /* \"#utility.yul\":411:453   */\n  0xffffffffffffffffffffffffffffffffffffffff\n    /* \"#utility.yul\":404:409   */\n  dup3\n    /* \"#utility.yul\":400:454   */\n  and\n    /* \"#utility.yul\":389:454   */\n  swap1\n  pop\n    /* \"#utility.yul\":334:460   */\n  swap2\n  swap1\n  pop\n  jump\t// out\n    /* \"#utility.yul\":466:562   */\ntag_11:\n    /* \"#utility.yul\":503:510   */\n  0x00\n    /* \"#utility.yul\":532:556   */\n  tag_21\n    /* \"#utility.yul\":550:555   */\n  dup3\n    /* \"#utility.yul\":532:556   */\n  tag_10\n  jump\t// in\ntag_21:\n    /* \"#utility.yul\":521:556   */\n  swap1\n  pop\n    /* \"#utility.yul\":466:562   */\n  swap2\n  swap1\n  pop\n  jump\t// out\n    /* \"#utility.yul\":568:677   */\ntag_12:\n    /* \"#utility.yul\":618:625   */\n  0x00\n    /* \"#utility.yul\":647:671   */\n  tag_23\n    /* \"#utility.yul\":665:670   */\n  dup3\n    /* \"#utility.yul\":647:671   */\n  tag_11\n  jump\t// in\ntag_23:\n    /* \"#utility.yul\":636:671   */\n  swap1\n  pop\n    /* \"#utility.yul\":568:677   */\n  swap2\n  swap1\n  pop\n  jump\t// out\n    /* \"#utility.yul\":683:831   */\ntag_13:\n    /* \"#utility.yul\":769:806   */\n  tag_25\n    /* \"#utility.yul\":800:805   */\n  dup2\n    /* \"#utility.yul\":769:806   */\n  tag_12\n  jump\t// in\ntag_25:\n    /* \"#utility.yul\":762:767   */\n  dup2\n    /* \"#utility.yul\":759:807   */\n  eq\n    /* \"#utility.yul\":749:825   */\n  tag_26\n  jumpi\n    /* \"#utility.yul\":821:822   */\n  0x00\n    /* \"#utility.yul\":818:819   */\n  dup1\n    /* \"#utility.yul\":811:823   */\n  revert\n    /* \"#utility.yul\":749:825   */\ntag_26:\n    /* \"#utility.yul\":683:831   */\n  pop\n  jump\t// out\n    /* \"#utility.yul\":837:1006   */\ntag_14:\n    /* \"#utility.yul\":907:912   */\n  0x00\n    /* \"#utility.yul\":938:944   */\n  dup2\n    /* \"#utility.yul\":932:945   */\n  mload\n    /* \"#utility.yul\":923:945   */\n  swap1\n  pop\n    /* \"#utility.yul\":954:1000   */\n  tag_28\n    /* \"#utility.yul\":994:999   */\n  dup2\n    /* \"#utility.yul\":954:1000   */\n  tag_13\n  jump\t// in\ntag_28:\n    /* \"#utility.yul\":837:1006   */\n  swap3\n  swap2\n  pop\n  pop\n  jump\t// out\n    /* \"#utility.yul\":1012:1389   */\ntag_3:\n    /* \"#utility.yul\":1095:1101   */\n  0x00\n    /* \"#utility.yul\":1144:1146   */\n  0x20\n    /* \"#utility.yul\":1132:1141   */\n  dup3\n    /* \"#utility.yul\":1123:1130   */\n  dup5\n    /* \"#utility.yul\":1119:1142   */\n  sub\n    /* \"#utility.yul\":1115:1147   */\n  slt\n    /* \"#utility.yul\":1112:1231   */\n  iszero\n  tag_30\n  jumpi\n    /* \"#utility.yul\":1150:1229   */\n  tag_31\n  tag_8\n  jump\t// in\ntag_31:\n    /* \"#utility.yul\":1112:1231   */\ntag_30:\n    /* \"#utility.yul\":1270:1271   */\n  0x00\n    /* \"#utility.yul\":1295:1372   */\n  tag_32\n    /* \"#utility.yul\":1364:1371   */\n  dup5\n    /* \"#utility.yul\":1355:1361   */\n  dup3\n    /* \"#utility.yul\":1344:1353   */\n  dup6\n    /* \"#utility.yul\":1340:1362   */\n  add\n    /* \"#utility.yul\":1295:1372   */\n  tag_14\n  jump\t// in\ntag_32:\n    /* \"#utility.yul\":1285:1372   */\n  swap2\n  pop\n    /* \"#utility.yul\":1241:1382   */\n  pop\n    /* \"#utility.yul\":1012:1389   */\n  swap3\n  swap2\n  pop\n  pop\n  jump\t// out\n    /* \".deps/contracts/EtherSwap.sol\":179:2916  contract EthSwap {... */\ntag_6:\n  dataSize(sub_0)\n  dup1\n  dataOffset(sub_0)\n  0x00\n  codecopy\n  0x00\n  return\nstop\n\nsub_0: assembly {\n        /* \".deps/contracts/EtherSwap.sol\":179:2916  contract EthSwap {... */\n      mstore(0x40, 0x80)\n      jumpi(tag_1, lt(calldatasize, 0x04))\n      shr(0xe0, calldataload(0x00))\n      dup1\n      0x7a6ce2e1\n      gt\n      tag_10\n      jumpi\n      dup1\n      0x7a6ce2e1\n      eq\n      tag_6\n      jumpi\n      dup1\n      0xa4821719\n      eq\n      tag_7\n      jumpi\n      dup1\n      0xb8368615\n      eq\n      tag_8\n      jumpi\n      dup1\n      0xfc0c546a\n      eq\n      tag_9\n      jumpi\n      jump(tag_1)\n    tag_10:\n      dup1\n      0x21df0da7\n      eq\n      tag_2\n      jumpi\n      dup1\n      0x22968885\n      eq\n      tag_3\n      jumpi\n      dup1\n      0x2397e4d7\n      eq\n      tag_4\n      jumpi\n      dup1\n      0x2c4e722e\n      eq\n      tag_5\n      jumpi\n    tag_1:\n      0x00\n      dup1\n      revert\n        /* \".deps/contracts/EtherSwap.sol\":591:735  function getToken()public view returns(address) {... */\n    tag_2:\n      callvalue\n      dup1\n      iszero\n      tag_11\n      jumpi\n      0x00\n      dup1\n      revert\n    tag_11:\n      pop\n      tag_12\n      tag_13\n      jump\t// in\n    tag_12:\n      mload(0x40)\n      tag_14\n      swap2\n      swap1\n      tag_15\n      jump\t// in\n    tag_14:\n      mload(0x40)\n      dup1\n      swap2\n      sub\n      swap1\n      return\n        /* \".deps/contracts/EtherSwap.sol\":1104:1287  function getBalanceOfContract() public view returns(uint256) {... */\n    tag_3:\n      callvalue\n      dup1\n      iszero\n      tag_16\n      jumpi\n      0x00\n      dup1\n      revert\n    tag_16:\n      pop\n      tag_17\n      tag_18\n      jump\t// in\n    tag_17:\n      mload(0x40)\n      tag_19\n      swap2\n      swap1\n      tag_20\n      jump\t// in\n    tag_19:\n      mload(0x40)\n      dup1\n      swap2\n      sub\n      swap1\n      return\n        /* \".deps/contracts/EtherSwap.sol\":1860:2913  function sellToken(uint256 _amount) public payable {... */\n    tag_4:\n      tag_21\n      0x04\n      dup1\n      calldatasize\n      sub\n      dup2\n      add\n      swap1\n      tag_22\n      swap2\n      swap1\n      tag_23\n      jump\t// in\n    tag_22:\n      tag_24\n      jump\t// in\n    tag_21:\n      stop\n        /* \".deps/contracts/EtherSwap.sol\":345:368  uint public rate = 5000 */\n    tag_5:\n      callvalue\n      dup1\n      iszero\n      tag_25\n      jumpi\n      0x00\n      dup1\n      revert\n    tag_25:\n      pop\n      tag_26\n      tag_27\n      jump\t// in\n    tag_26:\n      mload(0x40)\n      tag_28\n      swap2\n      swap1\n      tag_20\n      jump\t// in\n    tag_28:\n      mload(0x40)\n      dup1\n      swap2\n      sub\n      swap1\n      return\n        /* \".deps/contracts/EtherSwap.sol\":894:1045  function getMsgSender() public view returns(address) {... */\n    tag_6:\n      callvalue\n      dup1\n      iszero\n      tag_29\n      jumpi\n      0x00\n      dup1\n      revert\n    tag_29:\n      pop\n      tag_30\n      tag_31\n      jump\t// in\n    tag_30:\n      mload(0x40)\n      tag_32\n      swap2\n      swap1\n      tag_15\n      jump\t// in\n    tag_32:\n      mload(0x40)\n      dup1\n      swap2\n      sub\n      swap1\n      return\n        /* \".deps/contracts/EtherSwap.sol\":1323:1728  function buyToken() public payable {... */\n    tag_7:\n      tag_33\n      tag_34\n      jump\t// in\n    tag_33:\n      stop\n        /* \".deps/contracts/EtherSwap.sol\":747:886  function getThis() public view returns(address) {... */\n    tag_8:\n      callvalue\n      dup1\n      iszero\n      tag_35\n      jumpi\n      0x00\n      dup1\n      revert\n    tag_35:\n      pop\n      tag_36\n      tag_37\n      jump\t// in\n    tag_36:\n      mload(0x40)\n      tag_38\n      swap2\n      swap1\n      tag_15\n      jump\t// in\n    tag_38:\n      mload(0x40)\n      dup1\n      swap2\n      sub\n      swap1\n      return\n        /* \".deps/contracts/EtherSwap.sol\":203:221  ERC20 public token */\n    tag_9:\n      callvalue\n      dup1\n      iszero\n      tag_39\n      jumpi\n      0x00\n      dup1\n      revert\n    tag_39:\n      pop\n      tag_40\n      tag_41\n      jump\t// in\n    tag_40:\n      mload(0x40)\n      tag_42\n      swap2\n      swap1\n      tag_43\n      jump\t// in\n    tag_42:\n      mload(0x40)\n      dup1\n      swap2\n      sub\n      swap1\n      return\n        /* \".deps/contracts/EtherSwap.sol\":591:735  function getToken()public view returns(address) {... */\n    tag_13:\n        /* \".deps/contracts/EtherSwap.sol\":630:637  address */\n      0x00\n        /* \".deps/contracts/EtherSwap.sol\":665:670  token */\n      dup1\n      0x00\n      swap1\n      sload\n      swap1\n      0x0100\n      exp\n      swap1\n      div\n      0xffffffffffffffffffffffffffffffffffffffff\n      and\n        /* \".deps/contracts/EtherSwap.sol\":650:671  return address(token) */\n      swap1\n      pop\n        /* \".deps/contracts/EtherSwap.sol\":591:735  function getToken()public view returns(address) {... */\n      swap1\n      jump\t// out\n        /* \".deps/contracts/EtherSwap.sol\":1104:1287  function getBalanceOfContract() public view returns(uint256) {... */\n    tag_18:\n        /* \".deps/contracts/EtherSwap.sol\":1156:1163  uint256 */\n      0x00\n        /* \".deps/contracts/EtherSwap.sol\":1183:1188  token */\n      dup1\n      0x00\n      swap1\n      sload\n      swap1\n      0x0100\n      exp\n      swap1\n      div\n      0xffffffffffffffffffffffffffffffffffffffff\n      and\n        /* \".deps/contracts/EtherSwap.sol\":1183:1198  token.balanceOf */\n      0xffffffffffffffffffffffffffffffffffffffff\n      and\n      0x70a08231\n        /* \".deps/contracts/EtherSwap.sol\":1207:1211  this */\n      address\n        /* \".deps/contracts/EtherSwap.sol\":1183:1213  token.balanceOf(address(this)) */\n      mload(0x40)\n      dup3\n      0xffffffff\n      and\n      0xe0\n      shl\n      dup2\n      mstore\n      0x04\n      add\n      tag_46\n      swap2\n      swap1\n      tag_15\n      jump\t// in\n    tag_46:\n      0x20\n      mload(0x40)\n      dup1\n      dup4\n      sub\n      dup2\n      dup7\n      gas\n      staticcall\n      iszero\n      dup1\n      iszero\n      tag_48\n      jumpi\n      returndatasize\n      0x00\n      dup1\n      returndatacopy\n      revert(0x00, returndatasize)\n    tag_48:\n      pop\n      pop\n      pop\n      pop\n      mload(0x40)\n      returndatasize\n      not(0x1f)\n      0x1f\n      dup3\n      add\n      and\n      dup3\n      add\n      dup1\n      0x40\n      mstore\n      pop\n      dup2\n      add\n      swap1\n      tag_49\n      swap2\n      swap1\n      tag_50\n      jump\t// in\n    tag_49:\n        /* \".deps/contracts/EtherSwap.sol\":1176:1213  return token.balanceOf(address(this)) */\n      swap1\n      pop\n        /* \".deps/contracts/EtherSwap.sol\":1104:1287  function getBalanceOfContract() public view returns(uint256) {... */\n      swap1\n      jump\t// out\n        /* \".deps/contracts/EtherSwap.sol\":1860:2913  function sellToken(uint256 _amount) public payable {... */\n    tag_24:\n        /* \".deps/contracts/EtherSwap.sol\":1961:1968  _amount */\n      dup1\n        /* \".deps/contracts/EtherSwap.sol\":1930:1935  token */\n      0x00\n      dup1\n      sload\n      swap1\n      0x0100\n      exp\n      swap1\n      div\n      0xffffffffffffffffffffffffffffffffffffffff\n      and\n        /* \".deps/contracts/EtherSwap.sol\":1930:1945  token.balanceOf */\n      0xffffffffffffffffffffffffffffffffffffffff\n      and\n      0x70a08231\n        /* \".deps/contracts/EtherSwap.sol\":1946:1956  msg.sender */\n      caller\n        /* \".deps/contracts/EtherSwap.sol\":1930:1957  token.balanceOf(msg.sender) */\n      mload(0x40)\n      dup3\n      0xffffffff\n      and\n      0xe0\n      shl\n      dup2\n      mstore\n      0x04\n      add\n      tag_52\n      swap2\n      swap1\n      tag_15\n      jump\t// in\n    tag_52:\n      0x20\n      mload(0x40)\n      dup1\n      dup4\n      sub\n      dup2\n      dup7\n      gas\n      staticcall\n      iszero\n      dup1\n      iszero\n      tag_54\n      jumpi\n      returndatasize\n      0x00\n      dup1\n      returndatacopy\n      revert(0x00, returndatasize)\n    tag_54:\n      pop\n      pop\n      pop\n      pop\n      mload(0x40)\n      returndatasize\n      not(0x1f)\n      0x1f\n      dup3\n      add\n      and\n      dup3\n      add\n      dup1\n      0x40\n      mstore\n      pop\n      dup2\n      add\n      swap1\n      tag_55\n      swap2\n      swap1\n      tag_50\n      jump\t// in\n    tag_55:\n        /* \".deps/contracts/EtherSwap.sol\":1930:1968  token.balanceOf(msg.sender) >= _amount */\n      lt\n      iszero\n        /* \".deps/contracts/EtherSwap.sol\":1922:1969  require(token.balanceOf(msg.sender) >= _amount) */\n      tag_56\n      jumpi\n      0x00\n      dup1\n      revert\n    tag_56:\n        /* \".deps/contracts/EtherSwap.sol\":2080:2099  uint256 etherAmount */\n      0x00\n        /* \".deps/contracts/EtherSwap.sol\":2113:2117  rate */\n      sload(0x01)\n        /* \".deps/contracts/EtherSwap.sol\":2103:2110  _amount */\n      dup3\n        /* \".deps/contracts/EtherSwap.sol\":2103:2117  _amount / rate */\n      tag_57\n      swap2\n      swap1\n      tag_58\n      jump\t// in\n    tag_57:\n        /* \".deps/contracts/EtherSwap.sol\":2080:2118  uint256 etherAmount = (_amount / rate) */\n      swap1\n      pop\n        /* \".deps/contracts/EtherSwap.sol\":2209:2220  etherAmount */\n      dup1\n        /* \".deps/contracts/EtherSwap.sol\":2184:2205  address(this).balance */\n      selfbalance\n        /* \".deps/contracts/EtherSwap.sol\":2184:2220  address(this).balance >= etherAmount */\n      lt\n      iszero\n        /* \".deps/contracts/EtherSwap.sol\":2176:2221  require(address(this).balance >= etherAmount) */\n      tag_59\n      jumpi\n      0x00\n      dup1\n      revert\n    tag_59:\n        /* \".deps/contracts/EtherSwap.sol\":2367:2400  Debug(_amount, rate, etherAmount) */\n      0x426d9cc5b333c34d51d812de39be44790fc9815945379bd5bed56338e9dc165c\n        /* \".deps/contracts/EtherSwap.sol\":2373:2380  _amount */\n      dup3\n        /* \".deps/contracts/EtherSwap.sol\":2382:2386  rate */\n      sload(0x01)\n        /* \".deps/contracts/EtherSwap.sol\":2388:2399  etherAmount */\n      dup4\n        /* \".deps/contracts/EtherSwap.sol\":2367:2400  Debug(_amount, rate, etherAmount) */\n      mload(0x40)\n      tag_60\n      swap4\n      swap3\n      swap2\n      swap1\n      tag_61\n      jump\t// in\n    tag_60:\n      mload(0x40)\n      dup1\n      swap2\n      sub\n      swap1\n      log1\n        /* \".deps/contracts/EtherSwap.sol\":2491:2496  token */\n      0x00\n      dup1\n      sload\n      swap1\n      0x0100\n      exp\n      swap1\n      div\n      0xffffffffffffffffffffffffffffffffffffffff\n      and\n        /* \".deps/contracts/EtherSwap.sol\":2491:2504  token.approve */\n      0xffffffffffffffffffffffffffffffffffffffff\n      and\n      0x095ea7b3\n        /* \".deps/contracts/EtherSwap.sol\":2513:2517  this */\n      address\n        /* \".deps/contracts/EtherSwap.sol\":2520:2527  _amount */\n      dup5\n        /* \".deps/contracts/EtherSwap.sol\":2491:2528  token.approve(address(this), _amount) */\n      mload(0x40)\n      dup4\n      0xffffffff\n      and\n      0xe0\n      shl\n      dup2\n      mstore\n      0x04\n      add\n      tag_62\n      swap3\n      swap2\n      swap1\n      tag_63\n      jump\t// in\n    tag_62:\n      0x20\n      mload(0x40)\n      dup1\n      dup4\n      sub\n      dup2\n      0x00\n      dup8\n      gas\n      call\n      iszero\n      dup1\n      iszero\n      tag_65\n      jumpi\n      returndatasize\n      0x00\n      dup1\n      returndatacopy\n      revert(0x00, returndatasize)\n    tag_65:\n      pop\n      pop\n      pop\n      pop\n      mload(0x40)\n      returndatasize\n      not(0x1f)\n      0x1f\n      dup3\n      add\n      and\n      dup3\n      add\n      dup1\n      0x40\n      mstore\n      pop\n      dup2\n      add\n      swap1\n      tag_66\n      swap2\n      swap1\n      tag_67\n      jump\t// in\n    tag_66:\n        /* \".deps/contracts/EtherSwap.sol\":2483:2548  require(token.approve(address(this), _amount), \"Approval failed\") */\n      tag_68\n      jumpi\n      mload(0x40)\n      0x08c379a000000000000000000000000000000000000000000000000000000000\n      dup2\n      mstore\n      0x04\n      add\n      tag_69\n      swap1\n      tag_70\n      jump\t// in\n    tag_69:\n      mload(0x40)\n      dup1\n      swap2\n      sub\n      swap1\n      revert\n    tag_68:\n        /* \".deps/contracts/EtherSwap.sol\":2569:2574  token */\n      0x00\n      dup1\n      sload\n      swap1\n      0x0100\n      exp\n      swap1\n      div\n      0xffffffffffffffffffffffffffffffffffffffff\n      and\n        /* \".deps/contracts/EtherSwap.sol\":2569:2587  token.transferFrom */\n      0xffffffffffffffffffffffffffffffffffffffff\n      and\n      0x23b872dd\n        /* \".deps/contracts/EtherSwap.sol\":2588:2598  msg.sender */\n      caller\n        /* \".deps/contracts/EtherSwap.sol\":2608:2612  this */\n      address\n        /* \".deps/contracts/EtherSwap.sol\":2615:2622  _amount */\n      dup6\n        /* \".deps/contracts/EtherSwap.sol\":2569:2623  token.transferFrom(msg.sender, address(this), _amount) */\n      mload(0x40)\n      dup5\n      0xffffffff\n      and\n      0xe0\n      shl\n      dup2\n      mstore\n      0x04\n      add\n      tag_71\n      swap4\n      swap3\n      swap2\n      swap1\n      tag_72\n      jump\t// in\n    tag_71:\n      0x20\n      mload(0x40)\n      dup1\n      dup4\n      sub\n      dup2\n      0x00\n      dup8\n      gas\n      call\n      iszero\n      dup1\n      iszero\n      tag_74\n      jumpi\n      returndatasize\n      0x00\n      dup1\n      returndatacopy\n      revert(0x00, returndatasize)\n    tag_74:\n      pop\n      pop\n      pop\n      pop\n      mload(0x40)\n      returndatasize\n      not(0x1f)\n      0x1f\n      dup3\n      add\n      and\n      dup3\n      add\n      dup1\n      0x40\n      mstore\n      pop\n      dup2\n      add\n      swap1\n      tag_75\n      swap2\n      swap1\n      tag_67\n      jump\t// in\n    tag_75:\n      pop\n        /* \".deps/contracts/EtherSwap.sol\":2749:2759  msg.sender */\n      caller\n        /* \".deps/contracts/EtherSwap.sol\":2741:2769  payable(msg.sender).transfer */\n      0xffffffffffffffffffffffffffffffffffffffff\n      and\n        /* \".deps/contracts/EtherSwap.sol\":2741:2792  payable(msg.sender).transfer(etherAmount.mul(1e18)) */\n      0x08fc\n        /* \".deps/contracts/EtherSwap.sol\":2770:2791  etherAmount.mul(1e18) */\n      tag_76\n        /* \".deps/contracts/EtherSwap.sol\":2786:2790  1e18 */\n      0x0de0b6b3a7640000\n        /* \".deps/contracts/EtherSwap.sol\":2770:2781  etherAmount */\n      dup5\n        /* \".deps/contracts/EtherSwap.sol\":2770:2785  etherAmount.mul */\n      tag_77\n      swap1\n        /* \".deps/contracts/EtherSwap.sol\":2770:2791  etherAmount.mul(1e18) */\n      swap2\n      swap1\n      0xffffffff\n      and\n      jump\t// in\n    tag_76:\n        /* \".deps/contracts/EtherSwap.sol\":2741:2792  payable(msg.sender).transfer(etherAmount.mul(1e18)) */\n      swap1\n      dup2\n      iszero\n      mul\n      swap1\n      mload(0x40)\n      0x00\n      mload(0x40)\n      dup1\n      dup4\n      sub\n      dup2\n      dup6\n      dup9\n      dup9\n      call\n      swap4\n      pop\n      pop\n      pop\n      pop\n      iszero\n      dup1\n      iszero\n      tag_79\n      jumpi\n      returndatasize\n      0x00\n      dup1\n      returndatacopy\n      revert(0x00, returndatasize)\n    tag_79:\n      pop\n        /* \".deps/contracts/EtherSwap.sol\":1911:2913  {... */\n      pop\n        /* \".deps/contracts/EtherSwap.sol\":1860:2913  function sellToken(uint256 _amount) public payable {... */\n      pop\n      jump\t// out\n        /* \".deps/contracts/EtherSwap.sol\":345:368  uint public rate = 5000 */\n    tag_27:\n      sload(0x01)\n      dup2\n      jump\t// out\n        /* \".deps/contracts/EtherSwap.sol\":894:1045  function getMsgSender() public view returns(address) {... */\n    tag_31:\n        /* \".deps/contracts/EtherSwap.sol\":938:945  address */\n      0x00\n        /* \".deps/contracts/EtherSwap.sol\":965:975  msg.sender */\n      caller\n        /* \".deps/contracts/EtherSwap.sol\":958:975  return msg.sender */\n      swap1\n      pop\n        /* \".deps/contracts/EtherSwap.sol\":894:1045  function getMsgSender() public view returns(address) {... */\n      swap1\n      jump\t// out\n        /* \".deps/contracts/EtherSwap.sol\":1323:1728  function buyToken() public payable {... */\n    tag_34:\n        /* \".deps/contracts/EtherSwap.sol\":1369:1388  uint256 tokenAmount */\n      0x00\n        /* \".deps/contracts/EtherSwap.sol\":1391:1419  (msg.value * rate).div(1e18) */\n      tag_82\n        /* \".deps/contracts/EtherSwap.sol\":1414:1418  1e18 */\n      0x0de0b6b3a7640000\n        /* \".deps/contracts/EtherSwap.sol\":1404:1408  rate */\n      sload(0x01)\n        /* \".deps/contracts/EtherSwap.sol\":1392:1401  msg.value */\n      callvalue\n        /* \".deps/contracts/EtherSwap.sol\":1392:1408  msg.value * rate */\n      tag_83\n      swap2\n      swap1\n      tag_84\n      jump\t// in\n    tag_83:\n        /* \".deps/contracts/EtherSwap.sol\":1391:1413  (msg.value * rate).div */\n      tag_85\n      swap1\n        /* \".deps/contracts/EtherSwap.sol\":1391:1419  (msg.value * rate).div(1e18) */\n      swap2\n      swap1\n      0xffffffff\n      and\n      jump\t// in\n    tag_82:\n        /* \".deps/contracts/EtherSwap.sol\":1369:1419  uint256 tokenAmount = (msg.value * rate).div(1e18) */\n      swap1\n      pop\n        /* \".deps/contracts/EtherSwap.sol\":1507:1518  tokenAmount */\n      dup1\n        /* \".deps/contracts/EtherSwap.sol\":1473:1478  token */\n      0x00\n      dup1\n      sload\n      swap1\n      0x0100\n      exp\n      swap1\n      div\n      0xffffffffffffffffffffffffffffffffffffffff\n      and\n        /* \".deps/contracts/EtherSwap.sol\":1473:1488  token.balanceOf */\n      0xffffffffffffffffffffffffffffffffffffffff\n      and\n      0x70a08231\n        /* \".deps/contracts/EtherSwap.sol\":1497:1501  this */\n      address\n        /* \".deps/contracts/EtherSwap.sol\":1473:1503  token.balanceOf(address(this)) */\n      mload(0x40)\n      dup3\n      0xffffffff\n      and\n      0xe0\n      shl\n      dup2\n      mstore\n      0x04\n      add\n      tag_86\n      swap2\n      swap1\n      tag_15\n      jump\t// in\n    tag_86:\n      0x20\n      mload(0x40)\n      dup1\n      dup4\n      sub\n      dup2\n      dup7\n      gas\n      staticcall\n      iszero\n      dup1\n      iszero\n      tag_88\n      jumpi\n      returndatasize\n      0x00\n      dup1\n      returndatacopy\n      revert(0x00, returndatasize)\n    tag_88:\n      pop\n      pop\n      pop\n      pop\n      mload(0x40)\n      returndatasize\n      not(0x1f)\n      0x1f\n      dup3\n      add\n      and\n      dup3\n      add\n      dup1\n      0x40\n      mstore\n      pop\n      dup2\n      add\n      swap1\n      tag_89\n      swap2\n      swap1\n      tag_50\n      jump\t// in\n    tag_89:\n        /* \".deps/contracts/EtherSwap.sol\":1473:1518  token.balanceOf(address(this)) >= tokenAmount */\n      lt\n      iszero\n        /* \".deps/contracts/EtherSwap.sol\":1465:1540  require(token.balanceOf(address(this)) >= tokenAmount,\"Not enough Tokens \") */\n      tag_90\n      jumpi\n      mload(0x40)\n      0x08c379a000000000000000000000000000000000000000000000000000000000\n      dup2\n      mstore\n      0x04\n      add\n      tag_91\n      swap1\n      tag_92\n      jump\t// in\n    tag_91:\n      mload(0x40)\n      dup1\n      swap2\n      sub\n      swap1\n      revert\n    tag_90:\n        /* \".deps/contracts/EtherSwap.sol\":1624:1629  token */\n      0x00\n      dup1\n      sload\n      swap1\n      0x0100\n      exp\n      swap1\n      div\n      0xffffffffffffffffffffffffffffffffffffffff\n      and\n        /* \".deps/contracts/EtherSwap.sol\":1624:1638  token.transfer */\n      0xffffffffffffffffffffffffffffffffffffffff\n      and\n      0xa9059cbb\n        /* \".deps/contracts/EtherSwap.sol\":1639:1649  msg.sender */\n      caller\n        /* \".deps/contracts/EtherSwap.sol\":1650:1661  tokenAmount */\n      dup4\n        /* \".deps/contracts/EtherSwap.sol\":1624:1662  token.transfer(msg.sender,tokenAmount) */\n      mload(0x40)\n      dup4\n      0xffffffff\n      and\n      0xe0\n      shl\n      dup2\n      mstore\n      0x04\n      add\n      tag_93\n      swap3\n      swap2\n      swap1\n      tag_63\n      jump\t// in\n    tag_93:\n      0x20\n      mload(0x40)\n      dup1\n      dup4\n      sub\n      dup2\n      0x00\n      dup8\n      gas\n      call\n      iszero\n      dup1\n      iszero\n      tag_95\n      jumpi\n      returndatasize\n      0x00\n      dup1\n      returndatacopy\n      revert(0x00, returndatasize)\n    tag_95:\n      pop\n      pop\n      pop\n      pop\n      mload(0x40)\n      returndatasize\n      not(0x1f)\n      0x1f\n      dup3\n      add\n      and\n      dup3\n      add\n      dup1\n      0x40\n      mstore\n      pop\n      dup2\n      add\n      swap1\n      tag_96\n      swap2\n      swap1\n      tag_67\n      jump\t// in\n    tag_96:\n      pop\n        /* \".deps/contracts/EtherSwap.sol\":1358:1728  {... */\n      pop\n        /* \".deps/contracts/EtherSwap.sol\":1323:1728  function buyToken() public payable {... */\n      jump\t// out\n        /* \".deps/contracts/EtherSwap.sol\":747:886  function getThis() public view returns(address) {... */\n    tag_37:\n        /* \".deps/contracts/EtherSwap.sol\":786:793  address */\n      0x00\n        /* \".deps/contracts/EtherSwap.sol\":821:825  this */\n      address\n        /* \".deps/contracts/EtherSwap.sol\":806:826  return address(this) */\n      swap1\n      pop\n        /* \".deps/contracts/EtherSwap.sol\":747:886  function getThis() public view returns(address) {... */\n      swap1\n      jump\t// out\n        /* \".deps/contracts/EtherSwap.sol\":203:221  ERC20 public token */\n    tag_41:\n      0x00\n      dup1\n      sload\n      swap1\n      0x0100\n      exp\n      swap1\n      div\n      0xffffffffffffffffffffffffffffffffffffffff\n      and\n      dup2\n      jump\t// out\n        /* \"@openzeppelin/contracts/utils/math/SafeMath.sol\":3465:3561  function mul(uint256 a, uint256 b) internal pure returns (uint256) {... */\n    tag_77:\n        /* \"@openzeppelin/contracts/utils/math/SafeMath.sol\":3523:3530  uint256 */\n      0x00\n        /* \"@openzeppelin/contracts/utils/math/SafeMath.sol\":3553:3554  b */\n      dup2\n        /* \"@openzeppelin/contracts/utils/math/SafeMath.sol\":3549:3550  a */\n      dup4\n        /* \"@openzeppelin/contracts/utils/math/SafeMath.sol\":3549:3554  a * b */\n      tag_99\n      swap2\n      swap1\n      tag_84\n      jump\t// in\n    tag_99:\n        /* \"@openzeppelin/contracts/utils/math/SafeMath.sol\":3542:3554  return a * b */\n      swap1\n      pop\n        /* \"@openzeppelin/contracts/utils/math/SafeMath.sol\":3465:3561  function mul(uint256 a, uint256 b) internal pure returns (uint256) {... */\n      swap3\n      swap2\n      pop\n      pop\n      jump\t// out\n        /* \"@openzeppelin/contracts/utils/math/SafeMath.sol\":3850:3946  function div(uint256 a, uint256 b) internal pure returns (uint256) {... */\n    tag_85:\n        /* \"@openzeppelin/contracts/utils/math/SafeMath.sol\":3908:3915  uint256 */\n      0x00\n        /* \"@openzeppelin/contracts/utils/math/SafeMath.sol\":3938:3939  b */\n      dup2\n        /* \"@openzeppelin/contracts/utils/math/SafeMath.sol\":3934:3935  a */\n      dup4\n        /* \"@openzeppelin/contracts/utils/math/SafeMath.sol\":3934:3939  a / b */\n      tag_101\n      swap2\n      swap1\n      tag_58\n      jump\t// in\n    tag_101:\n        /* \"@openzeppelin/contracts/utils/math/SafeMath.sol\":3927:3939  return a / b */\n      swap1\n      pop\n        /* \"@openzeppelin/contracts/utils/math/SafeMath.sol\":3850:3946  function div(uint256 a, uint256 b) internal pure returns (uint256) {... */\n      swap3\n      swap2\n      pop\n      pop\n      jump\t// out\n        /* \"#utility.yul\":7:133   */\n    tag_102:\n        /* \"#utility.yul\":44:51   */\n      0x00\n        /* \"#utility.yul\":84:126   */\n      0xffffffffffffffffffffffffffffffffffffffff\n        /* \"#utility.yul\":77:82   */\n      dup3\n        /* \"#utility.yul\":73:127   */\n      and\n        /* \"#utility.yul\":62:127   */\n      swap1\n      pop\n        /* \"#utility.yul\":7:133   */\n      swap2\n      swap1\n      pop\n      jump\t// out\n        /* \"#utility.yul\":139:235   */\n    tag_103:\n        /* \"#utility.yul\":176:183   */\n      0x00\n        /* \"#utility.yul\":205:229   */\n      tag_131\n        /* \"#utility.yul\":223:228   */\n      dup3\n        /* \"#utility.yul\":205:229   */\n      tag_102\n      jump\t// in\n    tag_131:\n        /* \"#utility.yul\":194:229   */\n      swap1\n      pop\n        /* \"#utility.yul\":139:235   */\n      swap2\n      swap1\n      pop\n      jump\t// out\n        /* \"#utility.yul\":241:359   */\n    tag_104:\n        /* \"#utility.yul\":328:352   */\n      tag_133\n        /* \"#utility.yul\":346:351   */\n      dup2\n        /* \"#utility.yul\":328:352   */\n      tag_103\n      jump\t// in\n    tag_133:\n        /* \"#utility.yul\":323:326   */\n      dup3\n        /* \"#utility.yul\":316:353   */\n      mstore\n        /* \"#utility.yul\":241:359   */\n      pop\n      pop\n      jump\t// out\n        /* \"#utility.yul\":365:587   */\n    tag_15:\n        /* \"#utility.yul\":458:462   */\n      0x00\n        /* \"#utility.yul\":496:498   */\n      0x20\n        /* \"#utility.yul\":485:494   */\n      dup3\n        /* \"#utility.yul\":481:499   */\n      add\n        /* \"#utility.yul\":473:499   */\n      swap1\n      pop\n        /* \"#utility.yul\":509:580   */\n      tag_135\n        /* \"#utility.yul\":577:578   */\n      0x00\n        /* \"#utility.yul\":566:575   */\n      dup4\n        /* \"#utility.yul\":562:579   */\n      add\n        /* \"#utility.yul\":553:559   */\n      dup5\n        /* \"#utility.yul\":509:580   */\n      tag_104\n      jump\t// in\n    tag_135:\n        /* \"#utility.yul\":365:587   */\n      swap3\n      swap2\n      pop\n      pop\n      jump\t// out\n        /* \"#utility.yul\":593:670   */\n    tag_105:\n        /* \"#utility.yul\":630:637   */\n      0x00\n        /* \"#utility.yul\":659:664   */\n      dup2\n        /* \"#utility.yul\":648:664   */\n      swap1\n      pop\n        /* \"#utility.yul\":593:670   */\n      swap2\n      swap1\n      pop\n      jump\t// out\n        /* \"#utility.yul\":676:794   */\n    tag_106:\n        /* \"#utility.yul\":763:787   */\n      tag_138\n        /* \"#utility.yul\":781:786   */\n      dup2\n        /* \"#utility.yul\":763:787   */\n      tag_105\n      jump\t// in\n    tag_138:\n        /* \"#utility.yul\":758:761   */\n      dup3\n        /* \"#utility.yul\":751:788   */\n      mstore\n        /* \"#utility.yul\":676:794   */\n      pop\n      pop\n      jump\t// out\n        /* \"#utility.yul\":800:1022   */\n    tag_20:\n        /* \"#utility.yul\":893:897   */\n      0x00\n        /* \"#utility.yul\":931:933   */\n      0x20\n        /* \"#utility.yul\":920:929   */\n      dup3\n        /* \"#utility.yul\":916:934   */\n      add\n        /* \"#utility.yul\":908:934   */\n      swap1\n      pop\n        /* \"#utility.yul\":944:1015   */\n      tag_140\n        /* \"#utility.yul\":1012:1013   */\n      0x00\n        /* \"#utility.yul\":1001:1010   */\n      dup4\n        /* \"#utility.yul\":997:1014   */\n      add\n        /* \"#utility.yul\":988:994   */\n      dup5\n        /* \"#utility.yul\":944:1015   */\n      tag_106\n      jump\t// in\n    tag_140:\n        /* \"#utility.yul\":800:1022   */\n      swap3\n      swap2\n      pop\n      pop\n      jump\t// out\n        /* \"#utility.yul\":1109:1226   */\n    tag_108:\n        /* \"#utility.yul\":1218:1219   */\n      0x00\n        /* \"#utility.yul\":1215:1216   */\n      dup1\n        /* \"#utility.yul\":1208:1220   */\n      revert\n        /* \"#utility.yul\":1355:1477   */\n    tag_110:\n        /* \"#utility.yul\":1428:1452   */\n      tag_145\n        /* \"#utility.yul\":1446:1451   */\n      dup2\n        /* \"#utility.yul\":1428:1452   */\n      tag_105\n      jump\t// in\n    tag_145:\n        /* \"#utility.yul\":1421:1426   */\n      dup2\n        /* \"#utility.yul\":1418:1453   */\n      eq\n        /* \"#utility.yul\":1408:1471   */\n      tag_146\n      jumpi\n        /* \"#utility.yul\":1467:1468   */\n      0x00\n        /* \"#utility.yul\":1464:1465   */\n      dup1\n        /* \"#utility.yul\":1457:1469   */\n      revert\n        /* \"#utility.yul\":1408:1471   */\n    tag_146:\n        /* \"#utility.yul\":1355:1477   */\n      pop\n      jump\t// out\n        /* \"#utility.yul\":1483:1622   */\n    tag_111:\n        /* \"#utility.yul\":1529:1534   */\n      0x00\n        /* \"#utility.yul\":1567:1573   */\n      dup2\n        /* \"#utility.yul\":1554:1574   */\n      calldataload\n        /* \"#utility.yul\":1545:1574   */\n      swap1\n      pop\n        /* \"#utility.yul\":1583:1616   */\n      tag_148\n        /* \"#utility.yul\":1610:1615   */\n      dup2\n        /* \"#utility.yul\":1583:1616   */\n      tag_110\n      jump\t// in\n    tag_148:\n        /* \"#utility.yul\":1483:1622   */\n      swap3\n      swap2\n      pop\n      pop\n      jump\t// out\n        /* \"#utility.yul\":1628:1957   */\n    tag_23:\n        /* \"#utility.yul\":1687:1693   */\n      0x00\n        /* \"#utility.yul\":1736:1738   */\n      0x20\n        /* \"#utility.yul\":1724:1733   */\n      dup3\n        /* \"#utility.yul\":1715:1722   */\n      dup5\n        /* \"#utility.yul\":1711:1734   */\n      sub\n        /* \"#utility.yul\":1707:1739   */\n      slt\n        /* \"#utility.yul\":1704:1823   */\n      iszero\n      tag_150\n      jumpi\n        /* \"#utility.yul\":1742:1821   */\n      tag_151\n      tag_108\n      jump\t// in\n    tag_151:\n        /* \"#utility.yul\":1704:1823   */\n    tag_150:\n        /* \"#utility.yul\":1862:1863   */\n      0x00\n        /* \"#utility.yul\":1887:1940   */\n      tag_152\n        /* \"#utility.yul\":1932:1939   */\n      dup5\n        /* \"#utility.yul\":1923:1929   */\n      dup3\n        /* \"#utility.yul\":1912:1921   */\n      dup6\n        /* \"#utility.yul\":1908:1930   */\n      add\n        /* \"#utility.yul\":1887:1940   */\n      tag_111\n      jump\t// in\n    tag_152:\n        /* \"#utility.yul\":1877:1940   */\n      swap2\n      pop\n        /* \"#utility.yul\":1833:1950   */\n      pop\n        /* \"#utility.yul\":1628:1957   */\n      swap3\n      swap2\n      pop\n      pop\n      jump\t// out\n        /* \"#utility.yul\":1963:2023   */\n    tag_112:\n        /* \"#utility.yul\":1991:1994   */\n      0x00\n        /* \"#utility.yul\":2012:2017   */\n      dup2\n        /* \"#utility.yul\":2005:2017   */\n      swap1\n      pop\n        /* \"#utility.yul\":1963:2023   */\n      swap2\n      swap1\n      pop\n      jump\t// out\n        /* \"#utility.yul\":2029:2171   */\n    tag_113:\n        /* \"#utility.yul\":2079:2088   */\n      0x00\n        /* \"#utility.yul\":2112:2165   */\n      tag_155\n        /* \"#utility.yul\":2130:2164   */\n      tag_156\n        /* \"#utility.yul\":2139:2163   */\n      tag_157\n        /* \"#utility.yul\":2157:2162   */\n      dup5\n        /* \"#utility.yul\":2139:2163   */\n      tag_102\n      jump\t// in\n    tag_157:\n        /* \"#utility.yul\":2130:2164   */\n      tag_112\n      jump\t// in\n    tag_156:\n        /* \"#utility.yul\":2112:2165   */\n      tag_102\n      jump\t// in\n    tag_155:\n        /* \"#utility.yul\":2099:2165   */\n      swap1\n      pop\n        /* \"#utility.yul\":2029:2171   */\n      swap2\n      swap1\n      pop\n      jump\t// out\n        /* \"#utility.yul\":2177:2303   */\n    tag_114:\n        /* \"#utility.yul\":2227:2236   */\n      0x00\n        /* \"#utility.yul\":2260:2297   */\n      tag_159\n        /* \"#utility.yul\":2291:2296   */\n      dup3\n        /* \"#utility.yul\":2260:2297   */\n      tag_113\n      jump\t// in\n    tag_159:\n        /* \"#utility.yul\":2247:2297   */\n      swap1\n      pop\n        /* \"#utility.yul\":2177:2303   */\n      swap2\n      swap1\n      pop\n      jump\t// out\n        /* \"#utility.yul\":2309:2448   */\n    tag_115:\n        /* \"#utility.yul\":2372:2381   */\n      0x00\n        /* \"#utility.yul\":2405:2442   */\n      tag_161\n        /* \"#utility.yul\":2436:2441   */\n      dup3\n        /* \"#utility.yul\":2405:2442   */\n      tag_114\n      jump\t// in\n    tag_161:\n        /* \"#utility.yul\":2392:2442   */\n      swap1\n      pop\n        /* \"#utility.yul\":2309:2448   */\n      swap2\n      swap1\n      pop\n      jump\t// out\n        /* \"#utility.yul\":2454:2611   */\n    tag_116:\n        /* \"#utility.yul\":2554:2604   */\n      tag_163\n        /* \"#utility.yul\":2598:2603   */\n      dup2\n        /* \"#utility.yul\":2554:2604   */\n      tag_115\n      jump\t// in\n    tag_163:\n        /* \"#utility.yul\":2549:2552   */\n      dup3\n        /* \"#utility.yul\":2542:2605   */\n      mstore\n        /* \"#utility.yul\":2454:2611   */\n      pop\n      pop\n      jump\t// out\n        /* \"#utility.yul\":2617:2865   */\n    tag_43:\n        /* \"#utility.yul\":2723:2727   */\n      0x00\n        /* \"#utility.yul\":2761:2763   */\n      0x20\n        /* \"#utility.yul\":2750:2759   */\n      dup3\n        /* \"#utility.yul\":2746:2764   */\n      add\n        /* \"#utility.yul\":2738:2764   */\n      swap1\n      pop\n        /* \"#utility.yul\":2774:2858   */\n      tag_165\n        /* \"#utility.yul\":2855:2856   */\n      0x00\n        /* \"#utility.yul\":2844:2853   */\n      dup4\n        /* \"#utility.yul\":2840:2857   */\n      add\n        /* \"#utility.yul\":2831:2837   */\n      dup5\n        /* \"#utility.yul\":2774:2858   */\n      tag_116\n      jump\t// in\n    tag_165:\n        /* \"#utility.yul\":2617:2865   */\n      swap3\n      swap2\n      pop\n      pop\n      jump\t// out\n        /* \"#utility.yul\":2871:3014   */\n    tag_117:\n        /* \"#utility.yul\":2928:2933   */\n      0x00\n        /* \"#utility.yul\":2959:2965   */\n      dup2\n        /* \"#utility.yul\":2953:2966   */\n      mload\n        /* \"#utility.yul\":2944:2966   */\n      swap1\n      pop\n        /* \"#utility.yul\":2975:3008   */\n      tag_167\n        /* \"#utility.yul\":3002:3007   */\n      dup2\n        /* \"#utility.yul\":2975:3008   */\n      tag_110\n      jump\t// in\n    tag_167:\n        /* \"#utility.yul\":2871:3014   */\n      swap3\n      swap2\n      pop\n      pop\n      jump\t// out\n        /* \"#utility.yul\":3020:3371   */\n    tag_50:\n        /* \"#utility.yul\":3090:3096   */\n      0x00\n        /* \"#utility.yul\":3139:3141   */\n      0x20\n        /* \"#utility.yul\":3127:3136   */\n      dup3\n        /* \"#utility.yul\":3118:3125   */\n      dup5\n        /* \"#utility.yul\":3114:3137   */\n      sub\n        /* \"#utility.yul\":3110:3142   */\n      slt\n        /* \"#utility.yul\":3107:3226   */\n      iszero\n      tag_169\n      jumpi\n        /* \"#utility.yul\":3145:3224   */\n      tag_170\n      tag_108\n      jump\t// in\n    tag_170:\n        /* \"#utility.yul\":3107:3226   */\n    tag_169:\n        /* \"#utility.yul\":3265:3266   */\n      0x00\n        /* \"#utility.yul\":3290:3354   */\n      tag_171\n        /* \"#utility.yul\":3346:3353   */\n      dup5\n        /* \"#utility.yul\":3337:3343   */\n      dup3\n        /* \"#utility.yul\":3326:3335   */\n      dup6\n        /* \"#utility.yul\":3322:3344   */\n      add\n        /* \"#utility.yul\":3290:3354   */\n      tag_117\n      jump\t// in\n    tag_171:\n        /* \"#utility.yul\":3280:3354   */\n      swap2\n      pop\n        /* \"#utility.yul\":3236:3364   */\n      pop\n        /* \"#utility.yul\":3020:3371   */\n      swap3\n      swap2\n      pop\n      pop\n      jump\t// out\n        /* \"#utility.yul\":3377:3557   */\n    tag_118:\n        /* \"#utility.yul\":3425:3502   */\n      0x4e487b7100000000000000000000000000000000000000000000000000000000\n        /* \"#utility.yul\":3422:3423   */\n      0x00\n        /* \"#utility.yul\":3415:3503   */\n      mstore\n        /* \"#utility.yul\":3522:3526   */\n      0x12\n        /* \"#utility.yul\":3519:3520   */\n      0x04\n        /* \"#utility.yul\":3512:3527   */\n      mstore\n        /* \"#utility.yul\":3546:3550   */\n      0x24\n        /* \"#utility.yul\":3543:3544   */\n      0x00\n        /* \"#utility.yul\":3536:3551   */\n      revert\n        /* \"#utility.yul\":3563:3743   */\n    tag_119:\n        /* \"#utility.yul\":3611:3688   */\n      0x4e487b7100000000000000000000000000000000000000000000000000000000\n        /* \"#utility.yul\":3608:3609   */\n      0x00\n        /* \"#utility.yul\":3601:3689   */\n      mstore\n        /* \"#utility.yul\":3708:3712   */\n      0x11\n        /* \"#utility.yul\":3705:3706   */\n      0x04\n        /* \"#utility.yul\":3698:3713   */\n      mstore\n        /* \"#utility.yul\":3732:3736   */\n      0x24\n        /* \"#utility.yul\":3729:3730   */\n      0x00\n        /* \"#utility.yul\":3722:3737   */\n      revert\n        /* \"#utility.yul\":3749:3934   */\n    tag_58:\n        /* \"#utility.yul\":3789:3790   */\n      0x00\n        /* \"#utility.yul\":3806:3826   */\n      tag_175\n        /* \"#utility.yul\":3824:3825   */\n      dup3\n        /* \"#utility.yul\":3806:3826   */\n      tag_105\n      jump\t// in\n    tag_175:\n        /* \"#utility.yul\":3801:3826   */\n      swap2\n      pop\n        /* \"#utility.yul\":3840:3860   */\n      tag_176\n        /* \"#utility.yul\":3858:3859   */\n      dup4\n        /* \"#utility.yul\":3840:3860   */\n      tag_105\n      jump\t// in\n    tag_176:\n        /* \"#utility.yul\":3835:3860   */\n      swap3\n      pop\n        /* \"#utility.yul\":3879:3880   */\n      dup3\n        /* \"#utility.yul\":3869:3904   */\n      tag_177\n      jumpi\n        /* \"#utility.yul\":3884:3902   */\n      tag_178\n      tag_118\n      jump\t// in\n    tag_178:\n        /* \"#utility.yul\":3869:3904   */\n    tag_177:\n        /* \"#utility.yul\":3926:3927   */\n      dup3\n        /* \"#utility.yul\":3923:3924   */\n      dup3\n        /* \"#utility.yul\":3919:3928   */\n      div\n        /* \"#utility.yul\":3914:3928   */\n      swap1\n      pop\n        /* \"#utility.yul\":3749:3934   */\n      swap3\n      swap2\n      pop\n      pop\n      jump\t// out\n        /* \"#utility.yul\":3940:4382   */\n    tag_61:\n        /* \"#utility.yul\":4089:4093   */\n      0x00\n        /* \"#utility.yul\":4127:4129   */\n      0x60\n        /* \"#utility.yul\":4116:4125   */\n      dup3\n        /* \"#utility.yul\":4112:4130   */\n      add\n        /* \"#utility.yul\":4104:4130   */\n      swap1\n      pop\n        /* \"#utility.yul\":4140:4211   */\n      tag_180\n        /* \"#utility.yul\":4208:4209   */\n      0x00\n        /* \"#utility.yul\":4197:4206   */\n      dup4\n        /* \"#utility.yul\":4193:4210   */\n      add\n        /* \"#utility.yul\":4184:4190   */\n      dup7\n        /* \"#utility.yul\":4140:4211   */\n      tag_106\n      jump\t// in\n    tag_180:\n        /* \"#utility.yul\":4221:4293   */\n      tag_181\n        /* \"#utility.yul\":4289:4291   */\n      0x20\n        /* \"#utility.yul\":4278:4287   */\n      dup4\n        /* \"#utility.yul\":4274:4292   */\n      add\n        /* \"#utility.yul\":4265:4271   */\n      dup6\n        /* \"#utility.yul\":4221:4293   */\n      tag_106\n      jump\t// in\n    tag_181:\n        /* \"#utility.yul\":4303:4375   */\n      tag_182\n        /* \"#utility.yul\":4371:4373   */\n      0x40\n        /* \"#utility.yul\":4360:4369   */\n      dup4\n        /* \"#utility.yul\":4356:4374   */\n      add\n        /* \"#utility.yul\":4347:4353   */\n      dup5\n        /* \"#utility.yul\":4303:4375   */\n      tag_106\n      jump\t// in\n    tag_182:\n        /* \"#utility.yul\":3940:4382   */\n      swap5\n      swap4\n      pop\n      pop\n      pop\n      pop\n      jump\t// out\n        /* \"#utility.yul\":4388:4720   */\n    tag_63:\n        /* \"#utility.yul\":4509:4513   */\n      0x00\n        /* \"#utility.yul\":4547:4549   */\n      0x40\n        /* \"#utility.yul\":4536:4545   */\n      dup3\n        /* \"#utility.yul\":4532:4550   */\n      add\n        /* \"#utility.yul\":4524:4550   */\n      swap1\n      pop\n        /* \"#utility.yul\":4560:4631   */\n      tag_184\n        /* \"#utility.yul\":4628:4629   */\n      0x00\n        /* \"#utility.yul\":4617:4626   */\n      dup4\n        /* \"#utility.yul\":4613:4630   */\n      add\n        /* \"#utility.yul\":4604:4610   */\n      dup6\n        /* \"#utility.yul\":4560:4631   */\n      tag_104\n      jump\t// in\n    tag_184:\n        /* \"#utility.yul\":4641:4713   */\n      tag_185\n        /* \"#utility.yul\":4709:4711   */\n      0x20\n        /* \"#utility.yul\":4698:4707   */\n      dup4\n        /* \"#utility.yul\":4694:4712   */\n      add\n        /* \"#utility.yul\":4685:4691   */\n      dup5\n        /* \"#utility.yul\":4641:4713   */\n      tag_106\n      jump\t// in\n    tag_185:\n        /* \"#utility.yul\":4388:4720   */\n      swap4\n      swap3\n      pop\n      pop\n      pop\n      jump\t// out\n        /* \"#utility.yul\":4726:4816   */\n    tag_120:\n        /* \"#utility.yul\":4760:4767   */\n      0x00\n        /* \"#utility.yul\":4803:4808   */\n      dup2\n        /* \"#utility.yul\":4796:4809   */\n      iszero\n        /* \"#utility.yul\":4789:4810   */\n      iszero\n        /* \"#utility.yul\":4778:4810   */\n      swap1\n      pop\n        /* \"#utility.yul\":4726:4816   */\n      swap2\n      swap1\n      pop\n      jump\t// out\n        /* \"#utility.yul\":4822:4938   */\n    tag_121:\n        /* \"#utility.yul\":4892:4913   */\n      tag_188\n        /* \"#utility.yul\":4907:4912   */\n      dup2\n        /* \"#utility.yul\":4892:4913   */\n      tag_120\n      jump\t// in\n    tag_188:\n        /* \"#utility.yul\":4885:4890   */\n      dup2\n        /* \"#utility.yul\":4882:4914   */\n      eq\n        /* \"#utility.yul\":4872:4932   */\n      tag_189\n      jumpi\n        /* \"#utility.yul\":4928:4929   */\n      0x00\n        /* \"#utility.yul\":4925:4926   */\n      dup1\n        /* \"#utility.yul\":4918:4930   */\n      revert\n        /* \"#utility.yul\":4872:4932   */\n    tag_189:\n        /* \"#utility.yul\":4822:4938   */\n      pop\n      jump\t// out\n        /* \"#utility.yul\":4944:5081   */\n    tag_122:\n        /* \"#utility.yul\":4998:5003   */\n      0x00\n        /* \"#utility.yul\":5029:5035   */\n      dup2\n        /* \"#utility.yul\":5023:5036   */\n      mload\n        /* \"#utility.yul\":5014:5036   */\n      swap1\n      pop\n        /* \"#utility.yul\":5045:5075   */\n      tag_191\n        /* \"#utility.yul\":5069:5074   */\n      dup2\n        /* \"#utility.yul\":5045:5075   */\n      tag_121\n      jump\t// in\n    tag_191:\n        /* \"#utility.yul\":4944:5081   */\n      swap3\n      swap2\n      pop\n      pop\n      jump\t// out\n        /* \"#utility.yul\":5087:5432   */\n    tag_67:\n        /* \"#utility.yul\":5154:5160   */\n      0x00\n        /* \"#utility.yul\":5203:5205   */\n      0x20\n        /* \"#utility.yul\":5191:5200   */\n      dup3\n        /* \"#utility.yul\":5182:5189   */\n      dup5\n        /* \"#utility.yul\":5178:5201   */\n      sub\n        /* \"#utility.yul\":5174:5206   */\n      slt\n        /* \"#utility.yul\":5171:5290   */\n      iszero\n      tag_193\n      jumpi\n        /* \"#utility.yul\":5209:5288   */\n      tag_194\n      tag_108\n      jump\t// in\n    tag_194:\n        /* \"#utility.yul\":5171:5290   */\n    tag_193:\n        /* \"#utility.yul\":5329:5330   */\n      0x00\n        /* \"#utility.yul\":5354:5415   */\n      tag_195\n        /* \"#utility.yul\":5407:5414   */\n      dup5\n        /* \"#utility.yul\":5398:5404   */\n      dup3\n        /* \"#utility.yul\":5387:5396   */\n      dup6\n        /* \"#utility.yul\":5383:5405   */\n      add\n        /* \"#utility.yul\":5354:5415   */\n      tag_122\n      jump\t// in\n    tag_195:\n        /* \"#utility.yul\":5344:5415   */\n      swap2\n      pop\n        /* \"#utility.yul\":5300:5425   */\n      pop\n        /* \"#utility.yul\":5087:5432   */\n      swap3\n      swap2\n      pop\n      pop\n      jump\t// out\n        /* \"#utility.yul\":5438:5607   */\n    tag_123:\n        /* \"#utility.yul\":5522:5533   */\n      0x00\n        /* \"#utility.yul\":5556:5562   */\n      dup3\n        /* \"#utility.yul\":5551:5554   */\n      dup3\n        /* \"#utility.yul\":5544:5563   */\n      mstore\n        /* \"#utility.yul\":5596:5600   */\n      0x20\n        /* \"#utility.yul\":5591:5594   */\n      dup3\n        /* \"#utility.yul\":5587:5601   */\n      add\n        /* \"#utility.yul\":5572:5601   */\n      swap1\n      pop\n        /* \"#utility.yul\":5438:5607   */\n      swap3\n      swap2\n      pop\n      pop\n      jump\t// out\n        /* \"#utility.yul\":5613:5778   */\n    tag_124:\n        /* \"#utility.yul\":5753:5770   */\n      0x417070726f76616c206661696c65640000000000000000000000000000000000\n        /* \"#utility.yul\":5749:5750   */\n      0x00\n        /* \"#utility.yul\":5741:5747   */\n      dup3\n        /* \"#utility.yul\":5737:5751   */\n      add\n        /* \"#utility.yul\":5730:5771   */\n      mstore\n        /* \"#utility.yul\":5613:5778   */\n      pop\n      jump\t// out\n        /* \"#utility.yul\":5784:6150   */\n    tag_125:\n        /* \"#utility.yul\":5926:5929   */\n      0x00\n        /* \"#utility.yul\":5947:6014   */\n      tag_199\n        /* \"#utility.yul\":6011:6013   */\n      0x0f\n        /* \"#utility.yul\":6006:6009   */\n      dup4\n        /* \"#utility.yul\":5947:6014   */\n      tag_123\n      jump\t// in\n    tag_199:\n        /* \"#utility.yul\":5940:6014   */\n      swap2\n      pop\n        /* \"#utility.yul\":6023:6116   */\n      tag_200\n        /* \"#utility.yul\":6112:6115   */\n      dup3\n        /* \"#utility.yul\":6023:6116   */\n      tag_124\n      jump\t// in\n    tag_200:\n        /* \"#utility.yul\":6141:6143   */\n      0x20\n        /* \"#utility.yul\":6136:6139   */\n      dup3\n        /* \"#utility.yul\":6132:6144   */\n      add\n        /* \"#utility.yul\":6125:6144   */\n      swap1\n      pop\n        /* \"#utility.yul\":5784:6150   */\n      swap2\n      swap1\n      pop\n      jump\t// out\n        /* \"#utility.yul\":6156:6575   */\n    tag_70:\n        /* \"#utility.yul\":6322:6326   */\n      0x00\n        /* \"#utility.yul\":6360:6362   */\n      0x20\n        /* \"#utility.yul\":6349:6358   */\n      dup3\n        /* \"#utility.yul\":6345:6363   */\n      add\n        /* \"#utility.yul\":6337:6363   */\n      swap1\n      pop\n        /* \"#utility.yul\":6409:6418   */\n      dup2\n        /* \"#utility.yul\":6403:6407   */\n      dup2\n        /* \"#utility.yul\":6399:6419   */\n      sub\n        /* \"#utility.yul\":6395:6396   */\n      0x00\n        /* \"#utility.yul\":6384:6393   */\n      dup4\n        /* \"#utility.yul\":6380:6397   */\n      add\n        /* \"#utility.yul\":6373:6420   */\n      mstore\n        /* \"#utility.yul\":6437:6568   */\n      tag_202\n        /* \"#utility.yul\":6563:6567   */\n      dup2\n        /* \"#utility.yul\":6437:6568   */\n      tag_125\n      jump\t// in\n    tag_202:\n        /* \"#utility.yul\":6429:6568   */\n      swap1\n      pop\n        /* \"#utility.yul\":6156:6575   */\n      swap2\n      swap1\n      pop\n      jump\t// out\n        /* \"#utility.yul\":6581:7023   */\n    tag_72:\n        /* \"#utility.yul\":6730:6734   */\n      0x00\n        /* \"#utility.yul\":6768:6770   */\n      0x60\n        /* \"#utility.yul\":6757:6766   */\n      dup3\n        /* \"#utility.yul\":6753:6771   */\n      add\n        /* \"#utility.yul\":6745:6771   */\n      swap1\n      pop\n        /* \"#utility.yul\":6781:6852   */\n      tag_204\n        /* \"#utility.yul\":6849:6850   */\n      0x00\n        /* \"#utility.yul\":6838:6847   */\n      dup4\n        /* \"#utility.yul\":6834:6851   */\n      add\n        /* \"#utility.yul\":6825:6831   */\n      dup7\n        /* \"#utility.yul\":6781:6852   */\n      tag_104\n      jump\t// in\n    tag_204:\n        /* \"#utility.yul\":6862:6934   */\n      tag_205\n        /* \"#utility.yul\":6930:6932   */\n      0x20\n        /* \"#utility.yul\":6919:6928   */\n      dup4\n        /* \"#utility.yul\":6915:6933   */\n      add\n        /* \"#utility.yul\":6906:6912   */\n      dup6\n        /* \"#utility.yul\":6862:6934   */\n      tag_104\n      jump\t// in\n    tag_205:\n        /* \"#utility.yul\":6944:7016   */\n      tag_206\n        /* \"#utility.yul\":7012:7014   */\n      0x40\n        /* \"#utility.yul\":7001:7010   */\n      dup4\n        /* \"#utility.yul\":6997:7015   */\n      add\n        /* \"#utility.yul\":6988:6994   */\n      dup5\n        /* \"#utility.yul\":6944:7016   */\n      tag_106\n      jump\t// in\n    tag_206:\n        /* \"#utility.yul\":6581:7023   */\n      swap5\n      swap4\n      pop\n      pop\n      pop\n      pop\n      jump\t// out\n        /* \"#utility.yul\":7029:7439   */\n    tag_84:\n        /* \"#utility.yul\":7069:7076   */\n      0x00\n        /* \"#utility.yul\":7092:7112   */\n      tag_208\n        /* \"#utility.yul\":7110:7111   */\n      dup3\n        /* \"#utility.yul\":7092:7112   */\n      tag_105\n      jump\t// in\n    tag_208:\n        /* \"#utility.yul\":7087:7112   */\n      swap2\n      pop\n        /* \"#utility.yul\":7126:7146   */\n      tag_209\n        /* \"#utility.yul\":7144:7145   */\n      dup4\n        /* \"#utility.yul\":7126:7146   */\n      tag_105\n      jump\t// in\n    tag_209:\n        /* \"#utility.yul\":7121:7146   */\n      swap3\n      pop\n        /* \"#utility.yul\":7181:7182   */\n      dup3\n        /* \"#utility.yul\":7178:7179   */\n      dup3\n        /* \"#utility.yul\":7174:7183   */\n      mul\n        /* \"#utility.yul\":7203:7233   */\n      tag_210\n        /* \"#utility.yul\":7221:7232   */\n      dup2\n        /* \"#utility.yul\":7203:7233   */\n      tag_105\n      jump\t// in\n    tag_210:\n        /* \"#utility.yul\":7192:7233   */\n      swap2\n      pop\n        /* \"#utility.yul\":7382:7383   */\n      dup3\n        /* \"#utility.yul\":7373:7380   */\n      dup3\n        /* \"#utility.yul\":7369:7384   */\n      div\n        /* \"#utility.yul\":7366:7367   */\n      dup5\n        /* \"#utility.yul\":7363:7385   */\n      eq\n        /* \"#utility.yul\":7343:7344   */\n      dup4\n        /* \"#utility.yul\":7336:7345   */\n      iszero\n        /* \"#utility.yul\":7316:7399   */\n      or\n        /* \"#utility.yul\":7293:7432   */\n      tag_211\n      jumpi\n        /* \"#utility.yul\":7412:7430   */\n      tag_212\n      tag_119\n      jump\t// in\n    tag_212:\n        /* \"#utility.yul\":7293:7432   */\n    tag_211:\n        /* \"#utility.yul\":7077:7439   */\n      pop\n        /* \"#utility.yul\":7029:7439   */\n      swap3\n      swap2\n      pop\n      pop\n      jump\t// out\n        /* \"#utility.yul\":7445:7613   */\n    tag_126:\n        /* \"#utility.yul\":7585:7605   */\n      0x4e6f7420656e6f75676820546f6b656e73200000000000000000000000000000\n        /* \"#utility.yul\":7581:7582   */\n      0x00\n        /* \"#utility.yul\":7573:7579   */\n      dup3\n        /* \"#utility.yul\":7569:7583   */\n      add\n        /* \"#utility.yul\":7562:7606   */\n      mstore\n        /* \"#utility.yul\":7445:7613   */\n      pop\n      jump\t// out\n        /* \"#utility.yul\":7619:7985   */\n    tag_127:\n        /* \"#utility.yul\":7761:7764   */\n      0x00\n        /* \"#utility.yul\":7782:7849   */\n      tag_215\n        /* \"#utility.yul\":7846:7848   */\n      0x12\n        /* \"#utility.yul\":7841:7844   */\n      dup4\n        /* \"#utility.yul\":7782:7849   */\n      tag_123\n      jump\t// in\n    tag_215:\n        /* \"#utility.yul\":7775:7849   */\n      swap2\n      pop\n        /* \"#utility.yul\":7858:7951   */\n      tag_216\n        /* \"#utility.yul\":7947:7950   */\n      dup3\n        /* \"#utility.yul\":7858:7951   */\n      tag_126\n      jump\t// in\n    tag_216:\n        /* \"#utility.yul\":7976:7978   */\n      0x20\n        /* \"#utility.yul\":7971:7974   */\n      dup3\n        /* \"#utility.yul\":7967:7979   */\n      add\n        /* \"#utility.yul\":7960:7979   */\n      swap1\n      pop\n        /* \"#utility.yul\":7619:7985   */\n      swap2\n      swap1\n      pop\n      jump\t// out\n        /* \"#utility.yul\":7991:8410   */\n    tag_92:\n        /* \"#utility.yul\":8157:8161   */\n      0x00\n        /* \"#utility.yul\":8195:8197   */\n      0x20\n        /* \"#utility.yul\":8184:8193   */\n      dup3\n        /* \"#utility.yul\":8180:8198   */\n      add\n        /* \"#utility.yul\":8172:8198   */\n      swap1\n      pop\n        /* \"#utility.yul\":8244:8253   */\n      dup2\n        /* \"#utility.yul\":8238:8242   */\n      dup2\n        /* \"#utility.yul\":8234:8254   */\n      sub\n        /* \"#utility.yul\":8230:8231   */\n      0x00\n        /* \"#utility.yul\":8219:8228   */\n      dup4\n        /* \"#utility.yul\":8215:8232   */\n      add\n        /* \"#utility.yul\":8208:8255   */\n      mstore\n        /* \"#utility.yul\":8272:8403   */\n      tag_218\n        /* \"#utility.yul\":8398:8402   */\n      dup2\n        /* \"#utility.yul\":8272:8403   */\n      tag_127\n      jump\t// in\n    tag_218:\n        /* \"#utility.yul\":8264:8403   */\n      swap1\n      pop\n        /* \"#utility.yul\":7991:8410   */\n      swap2\n      swap1\n      pop\n      jump\t// out\n\n    auxdata: 0xa2646970667358221220e55cc37c96a62febaec92dd76ef180b33b6c5d3d26f3af3cdac3c15bca60b7c164736f6c63430008140033\n}\n",
				"bytecode": {
					"linkReferences": {},
					"object": "6080604052611388600155348015610015575f80fd5b50604051610cc6380380610cc6833981810160405281019061003791906100eb565b805f806101000a81548173ffffffffffffffffffffffffffffffffffffffff021916908373ffffffffffffffffffffffffffffffffffffffff16021790555050610116565b5f80fd5b5f73ffffffffffffffffffffffffffffffffffffffff82169050919050565b5f6100a982610080565b9050919050565b5f6100ba8261009f565b9050919050565b6100ca816100b0565b81146100d4575f80fd5b50565b5f815190506100e5816100c1565b92915050565b5f60208284031215610100576100ff61007c565b5b5f61010d848285016100d7565b91505092915050565b610ba3806101235f395ff3fe60806040526004361061007a575f3560e01c80637a6ce2e11161004d5780637a6ce2e114610118578063a482171914610142578063b83686151461014c578063fc0c546a146101765761007a565b806321df0da71461007e57806322968885146100a85780632397e4d7146100d25780632c4e722e146100ee575b5f80fd5b348015610089575f80fd5b506100926101a0565b60405161009f919061077b565b60405180910390f35b3480156100b3575f80fd5b506100bc6101c7565b6040516100c991906107ac565b60405180910390f35b6100ec60048036038101906100e791906107f3565b610265565b005b3480156100f9575f80fd5b50610102610539565b60405161010f91906107ac565b60405180910390f35b348015610123575f80fd5b5061012c61053f565b604051610139919061077b565b60405180910390f35b61014a610546565b005b348015610157575f80fd5b506101606106e8565b60405161016d919061077b565b60405180910390f35b348015610181575f80fd5b5061018a6106ef565b6040516101979190610879565b60405180910390f35b5f805f9054906101000a900473ffffffffffffffffffffffffffffffffffffffff16905090565b5f805f9054906101000a900473ffffffffffffffffffffffffffffffffffffffff1673ffffffffffffffffffffffffffffffffffffffff166370a08231306040518263ffffffff1660e01b8152600401610221919061077b565b602060405180830381865afa15801561023c573d5f803e3d5ffd5b505050506040513d601f19601f8201168201806040525081019061026091906108a6565b905090565b805f8054906101000a900473ffffffffffffffffffffffffffffffffffffffff1673ffffffffffffffffffffffffffffffffffffffff166370a08231336040518263ffffffff1660e01b81526004016102be919061077b565b602060405180830381865afa1580156102d9573d5f803e3d5ffd5b505050506040513d601f19601f820116820180604052508101906102fd91906108a6565b1015610307575f80fd5b5f60015482610316919061092b565b905080471015610324575f80fd5b7f426d9cc5b333c34d51d812de39be44790fc9815945379bd5bed56338e9dc165c82600154836040516103599392919061095b565b60405180910390a15f8054906101000a900473ffffffffffffffffffffffffffffffffffffffff1673ffffffffffffffffffffffffffffffffffffffff1663095ea7b330846040518363ffffffff1660e01b81526004016103bb929190610990565b6020604051808303815f875af11580156103d7573d5f803e3d5ffd5b505050506040513d601f19601f820116820180604052508101906103fb91906109ec565b61043a576040517f08c379a000000000000000000000000000000000000000000000000000000000815260040161043190610a71565b60405180910390fd5b5f8054906101000a900473ffffffffffffffffffffffffffffffffffffffff1673ffffffffffffffffffffffffffffffffffffffff166323b872dd3330856040518463ffffffff1660e01b815260040161049693929190610a8f565b6020604051808303815f875af11580156104b2573d5f803e3d5ffd5b505050506040513d601f19601f820116820180604052508101906104d691906109ec565b503373ffffffffffffffffffffffffffffffffffffffff166108fc61050c670de0b6b3a76400008461071290919063ffffffff16565b90811502906040515f60405180830381858888f19350505050158015610534573d5f803e3d5ffd5b505050565b60015481565b5f33905090565b5f61056f670de0b6b3a7640000600154346105619190610ac4565b61072790919063ffffffff16565b9050805f8054906101000a900473ffffffffffffffffffffffffffffffffffffffff1673ffffffffffffffffffffffffffffffffffffffff166370a08231306040518263ffffffff1660e01b81526004016105ca919061077b565b602060405180830381865afa1580156105e5573d5f803e3d5ffd5b505050506040513d601f19601f8201168201806040525081019061060991906108a6565b101561064a576040517f08c379a000000000000000000000000000000000000000000000000000000000815260040161064190610b4f565b60405180910390fd5b5f8054906101000a900473ffffffffffffffffffffffffffffffffffffffff1673ffffffffffffffffffffffffffffffffffffffff1663a9059cbb33836040518363ffffffff1660e01b81526004016106a4929190610990565b6020604051808303815f875af11580156106c0573d5f803e3d5ffd5b505050506040513d601f19601f820116820180604052508101906106e491906109ec565b5050565b5f30905090565b5f8054906101000a900473ffffffffffffffffffffffffffffffffffffffff1681565b5f818361071f9190610ac4565b905092915050565b5f8183610734919061092b565b905092915050565b5f73ffffffffffffffffffffffffffffffffffffffff82169050919050565b5f6107658261073c565b9050919050565b6107758161075b565b82525050565b5f60208201905061078e5f83018461076c565b92915050565b5f819050919050565b6107a681610794565b82525050565b5f6020820190506107bf5f83018461079d565b92915050565b5f80fd5b6107d281610794565b81146107dc575f80fd5b50565b5f813590506107ed816107c9565b92915050565b5f60208284031215610808576108076107c5565b5b5f610815848285016107df565b91505092915050565b5f819050919050565b5f61084161083c6108378461073c565b61081e565b61073c565b9050919050565b5f61085282610827565b9050919050565b5f61086382610848565b9050919050565b61087381610859565b82525050565b5f60208201905061088c5f83018461086a565b92915050565b5f815190506108a0816107c9565b92915050565b5f602082840312156108bb576108ba6107c5565b5b5f6108c884828501610892565b91505092915050565b7f4e487b71000000000000000000000000000000000000000000000000000000005f52601260045260245ffd5b7f4e487b71000000000000000000000000000000000000000000000000000000005f52601160045260245ffd5b5f61093582610794565b915061094083610794565b9250826109505761094f6108d1565b5b828204905092915050565b5f60608201905061096e5f83018661079d565b61097b602083018561079d565b610988604083018461079d565b949350505050565b5f6040820190506109a35f83018561076c565b6109b0602083018461079d565b9392505050565b5f8115159050919050565b6109cb816109b7565b81146109d5575f80fd5b50565b5f815190506109e6816109c2565b92915050565b5f60208284031215610a0157610a006107c5565b5b5f610a0e848285016109d8565b91505092915050565b5f82825260208201905092915050565b7f417070726f76616c206661696c656400000000000000000000000000000000005f82015250565b5f610a5b600f83610a17565b9150610a6682610a27565b602082019050919050565b5f6020820190508181035f830152610a8881610a4f565b9050919050565b5f606082019050610aa25f83018661076c565b610aaf602083018561076c565b610abc604083018461079d565b949350505050565b5f610ace82610794565b9150610ad983610794565b9250828202610ae781610794565b91508282048414831517610afe57610afd6108fe565b5b5092915050565b7f4e6f7420656e6f75676820546f6b656e732000000000000000000000000000005f82015250565b5f610b39601283610a17565b9150610b4482610b05565b602082019050919050565b5f6020820190508181035f830152610b6681610b2d565b905091905056fea2646970667358221220e55cc37c96a62febaec92dd76ef180b33b6c5d3d26f3af3cdac3c15bca60b7c164736f6c63430008140033",
					"opcodes": "PUSH1 0x80 PUSH1 0x40 MSTORE PUSH2 0x1388 PUSH1 0x1 SSTORE CALLVALUE DUP1 ISZERO PUSH2 0x15 JUMPI PUSH0 DUP1 REVERT JUMPDEST POP PUSH1 0x40 MLOAD PUSH2 0xCC6 CODESIZE SUB DUP1 PUSH2 0xCC6 DUP4 CODECOPY DUP2 DUP2 ADD PUSH1 0x40 MSTORE DUP2 ADD SWAP1 PUSH2 0x37 SWAP2 SWAP1 PUSH2 0xEB JUMP JUMPDEST DUP1 PUSH0 DUP1 PUSH2 0x100 EXP DUP2 SLOAD DUP2 PUSH20 0xFFFFFFFFFFFFFFFFFFFFFFFFFFFFFFFFFFFFFFFF MUL NOT AND SWAP1 DUP4 PUSH20 0xFFFFFFFFFFFFFFFFFFFFFFFFFFFFFFFFFFFFFFFF AND MUL OR SWAP1 SSTORE POP POP PUSH2 0x116 JUMP JUMPDEST PUSH0 DUP1 REVERT JUMPDEST PUSH0 PUSH20 0xFFFFFFFFFFFFFFFFFFFFFFFFFFFFFFFFFFFFFFFF DUP3 AND SWAP1 POP SWAP2 SWAP1 POP JUMP JUMPDEST PUSH0 PUSH2 0xA9 DUP3 PUSH2 0x80 JUMP JUMPDEST SWAP1 POP SWAP2 SWAP1 POP JUMP JUMPDEST PUSH0 PUSH2 0xBA DUP3 PUSH2 0x9F JUMP JUMPDEST SWAP1 POP SWAP2 SWAP1 POP JUMP JUMPDEST PUSH2 0xCA DUP2 PUSH2 0xB0 JUMP JUMPDEST DUP2 EQ PUSH2 0xD4 JUMPI PUSH0 DUP1 REVERT JUMPDEST POP JUMP JUMPDEST PUSH0 DUP2 MLOAD SWAP1 POP PUSH2 0xE5 DUP2 PUSH2 0xC1 JUMP JUMPDEST SWAP3 SWAP2 POP POP JUMP JUMPDEST PUSH0 PUSH1 0x20 DUP3 DUP5 SUB SLT ISZERO PUSH2 0x100 JUMPI PUSH2 0xFF PUSH2 0x7C JUMP JUMPDEST JUMPDEST PUSH0 PUSH2 0x10D DUP5 DUP3 DUP6 ADD PUSH2 0xD7 JUMP JUMPDEST SWAP2 POP POP SWAP3 SWAP2 POP POP JUMP JUMPDEST PUSH2 0xBA3 DUP1 PUSH2 0x123 PUSH0 CODECOPY PUSH0 RETURN INVALID PUSH1 0x80 PUSH1 0x40 MSTORE PUSH1 0x4 CALLDATASIZE LT PUSH2 0x7A JUMPI PUSH0 CALLDATALOAD PUSH1 0xE0 SHR DUP1 PUSH4 0x7A6CE2E1 GT PUSH2 0x4D JUMPI DUP1 PUSH4 0x7A6CE2E1 EQ PUSH2 0x118 JUMPI DUP1 PUSH4 0xA4821719 EQ PUSH2 0x142 JUMPI DUP1 PUSH4 0xB8368615 EQ PUSH2 0x14C JUMPI DUP1 PUSH4 0xFC0C546A EQ PUSH2 0x176 JUMPI PUSH2 0x7A JUMP JUMPDEST DUP1 PUSH4 0x21DF0DA7 EQ PUSH2 0x7E JUMPI DUP1 PUSH4 0x22968885 EQ PUSH2 0xA8 JUMPI DUP1 PUSH4 0x2397E4D7 EQ PUSH2 0xD2 JUMPI DUP1 PUSH4 0x2C4E722E EQ PUSH2 0xEE JUMPI JUMPDEST PUSH0 DUP1 REVERT JUMPDEST CALLVALUE DUP1 ISZERO PUSH2 0x89 JUMPI PUSH0 DUP1 REVERT JUMPDEST POP PUSH2 0x92 PUSH2 0x1A0 JUMP JUMPDEST PUSH1 0x40 MLOAD PUSH2 0x9F SWAP2 SWAP1 PUSH2 0x77B JUMP JUMPDEST PUSH1 0x40 MLOAD DUP1 SWAP2 SUB SWAP1 RETURN JUMPDEST CALLVALUE DUP1 ISZERO PUSH2 0xB3 JUMPI PUSH0 DUP1 REVERT JUMPDEST POP PUSH2 0xBC PUSH2 0x1C7 JUMP JUMPDEST PUSH1 0x40 MLOAD PUSH2 0xC9 SWAP2 SWAP1 PUSH2 0x7AC JUMP JUMPDEST PUSH1 0x40 MLOAD DUP1 SWAP2 SUB SWAP1 RETURN JUMPDEST PUSH2 0xEC PUSH1 0x4 DUP1 CALLDATASIZE SUB DUP2 ADD SWAP1 PUSH2 0xE7 SWAP2 SWAP1 PUSH2 0x7F3 JUMP JUMPDEST PUSH2 0x265 JUMP JUMPDEST STOP JUMPDEST CALLVALUE DUP1 ISZERO PUSH2 0xF9 JUMPI PUSH0 DUP1 REVERT JUMPDEST POP PUSH2 0x102 PUSH2 0x539 JUMP JUMPDEST PUSH1 0x40 MLOAD PUSH2 0x10F SWAP2 SWAP1 PUSH2 0x7AC JUMP JUMPDEST PUSH1 0x40 MLOAD DUP1 SWAP2 SUB SWAP1 RETURN JUMPDEST CALLVALUE DUP1 ISZERO PUSH2 0x123 JUMPI PUSH0 DUP1 REVERT JUMPDEST POP PUSH2 0x12C PUSH2 0x53F JUMP JUMPDEST PUSH1 0x40 MLOAD PUSH2 0x139 SWAP2 SWAP1 PUSH2 0x77B JUMP JUMPDEST PUSH1 0x40 MLOAD DUP1 SWAP2 SUB SWAP1 RETURN JUMPDEST PUSH2 0x14A PUSH2 0x546 JUMP JUMPDEST STOP JUMPDEST CALLVALUE DUP1 ISZERO PUSH2 0x157 JUMPI PUSH0 DUP1 REVERT JUMPDEST POP PUSH2 0x160 PUSH2 0x6E8 JUMP JUMPDEST PUSH1 0x40 MLOAD PUSH2 0x16D SWAP2 SWAP1 PUSH2 0x77B JUMP JUMPDEST PUSH1 0x40 MLOAD DUP1 SWAP2 SUB SWAP1 RETURN JUMPDEST CALLVALUE DUP1 ISZERO PUSH2 0x181 JUMPI PUSH0 DUP1 REVERT JUMPDEST POP PUSH2 0x18A PUSH2 0x6EF JUMP JUMPDEST PUSH1 0x40 MLOAD PUSH2 0x197 SWAP2 SWAP1 PUSH2 0x879 JUMP JUMPDEST PUSH1 0x40 MLOAD DUP1 SWAP2 SUB SWAP1 RETURN JUMPDEST PUSH0 DUP1 PUSH0 SWAP1 SLOAD SWAP1 PUSH2 0x100 EXP SWAP1 DIV PUSH20 0xFFFFFFFFFFFFFFFFFFFFFFFFFFFFFFFFFFFFFFFF AND SWAP1 POP SWAP1 JUMP JUMPDEST PUSH0 DUP1 PUSH0 SWAP1 SLOAD SWAP1 PUSH2 0x100 EXP SWAP1 DIV PUSH20 0xFFFFFFFFFFFFFFFFFFFFFFFFFFFFFFFFFFFFFFFF AND PUSH20 0xFFFFFFFFFFFFFFFFFFFFFFFFFFFFFFFFFFFFFFFF AND PUSH4 0x70A08231 ADDRESS PUSH1 0x40 MLOAD DUP3 PUSH4 0xFFFFFFFF AND PUSH1 0xE0 SHL DUP2 MSTORE PUSH1 0x4 ADD PUSH2 0x221 SWAP2 SWAP1 PUSH2 0x77B JUMP JUMPDEST PUSH1 0x20 PUSH1 0x40 MLOAD DUP1 DUP4 SUB DUP2 DUP7 GAS STATICCALL ISZERO DUP1 ISZERO PUSH2 0x23C JUMPI RETURNDATASIZE PUSH0 DUP1 RETURNDATACOPY RETURNDATASIZE PUSH0 REVERT JUMPDEST POP POP POP POP PUSH1 0x40 MLOAD RETURNDATASIZE PUSH1 0x1F NOT PUSH1 0x1F DUP3 ADD AND DUP3 ADD DUP1 PUSH1 0x40 MSTORE POP DUP2 ADD SWAP1 PUSH2 0x260 SWAP2 SWAP1 PUSH2 0x8A6 JUMP JUMPDEST SWAP1 POP SWAP1 JUMP JUMPDEST DUP1 PUSH0 DUP1 SLOAD SWAP1 PUSH2 0x100 EXP SWAP1 DIV PUSH20 0xFFFFFFFFFFFFFFFFFFFFFFFFFFFFFFFFFFFFFFFF AND PUSH20 0xFFFFFFFFFFFFFFFFFFFFFFFFFFFFFFFFFFFFFFFF AND PUSH4 0x70A08231 CALLER PUSH1 0x40 MLOAD DUP3 PUSH4 0xFFFFFFFF AND PUSH1 0xE0 SHL DUP2 MSTORE PUSH1 0x4 ADD PUSH2 0x2BE SWAP2 SWAP1 PUSH2 0x77B JUMP JUMPDEST PUSH1 0x20 PUSH1 0x40 MLOAD DUP1 DUP4 SUB DUP2 DUP7 GAS STATICCALL ISZERO DUP1 ISZERO PUSH2 0x2D9 JUMPI RETURNDATASIZE PUSH0 DUP1 RETURNDATACOPY RETURNDATASIZE PUSH0 REVERT JUMPDEST POP POP POP POP PUSH1 0x40 MLOAD RETURNDATASIZE PUSH1 0x1F NOT PUSH1 0x1F DUP3 ADD AND DUP3 ADD DUP1 PUSH1 0x40 MSTORE POP DUP2 ADD SWAP1 PUSH2 0x2FD SWAP2 SWAP1 PUSH2 0x8A6 JUMP JUMPDEST LT ISZERO PUSH2 0x307 JUMPI PUSH0 DUP1 REVERT JUMPDEST PUSH0 PUSH1 0x1 SLOAD DUP3 PUSH2 0x316 SWAP2 SWAP1 PUSH2 0x92B JUMP JUMPDEST SWAP1 POP DUP1 SELFBALANCE LT ISZERO PUSH2 0x324 JUMPI PUSH0 DUP1 REVERT JUMPDEST PUSH32 0x426D9CC5B333C34D51D812DE39BE44790FC9815945379BD5BED56338E9DC165C DUP3 PUSH1 0x1 SLOAD DUP4 PUSH1 0x40 MLOAD PUSH2 0x359 SWAP4 SWAP3 SWAP2 SWAP1 PUSH2 0x95B JUMP JUMPDEST PUSH1 0x40 MLOAD DUP1 SWAP2 SUB SWAP1 LOG1 PUSH0 DUP1 SLOAD SWAP1 PUSH2 0x100 EXP SWAP1 DIV PUSH20 0xFFFFFFFFFFFFFFFFFFFFFFFFFFFFFFFFFFFFFFFF AND PUSH20 0xFFFFFFFFFFFFFFFFFFFFFFFFFFFFFFFFFFFFFFFF AND PUSH4 0x95EA7B3 ADDRESS DUP5 PUSH1 0x40 MLOAD DUP4 PUSH4 0xFFFFFFFF AND PUSH1 0xE0 SHL DUP2 MSTORE PUSH1 0x4 ADD PUSH2 0x3BB SWAP3 SWAP2 SWAP1 PUSH2 0x990 JUMP JUMPDEST PUSH1 0x20 PUSH1 0x40 MLOAD DUP1 DUP4 SUB DUP2 PUSH0 DUP8 GAS CALL ISZERO DUP1 ISZERO PUSH2 0x3D7 JUMPI RETURNDATASIZE PUSH0 DUP1 RETURNDATACOPY RETURNDATASIZE PUSH0 REVERT JUMPDEST POP POP POP POP PUSH1 0x40 MLOAD RETURNDATASIZE PUSH1 0x1F NOT PUSH1 0x1F DUP3 ADD AND DUP3 ADD DUP1 PUSH1 0x40 MSTORE POP DUP2 ADD SWAP1 PUSH2 0x3FB SWAP2 SWAP1 PUSH2 0x9EC JUMP JUMPDEST PUSH2 0x43A JUMPI PUSH1 0x40 MLOAD PUSH32 0x8C379A000000000000000000000000000000000000000000000000000000000 DUP2 MSTORE PUSH1 0x4 ADD PUSH2 0x431 SWAP1 PUSH2 0xA71 JUMP JUMPDEST PUSH1 0x40 MLOAD DUP1 SWAP2 SUB SWAP1 REVERT JUMPDEST PUSH0 DUP1 SLOAD SWAP1 PUSH2 0x100 EXP SWAP1 DIV PUSH20 0xFFFFFFFFFFFFFFFFFFFFFFFFFFFFFFFFFFFFFFFF AND PUSH20 0xFFFFFFFFFFFFFFFFFFFFFFFFFFFFFFFFFFFFFFFF AND PUSH4 0x23B872DD CALLER ADDRESS DUP6 PUSH1 0x40 MLOAD DUP5 PUSH4 0xFFFFFFFF AND PUSH1 0xE0 SHL DUP2 MSTORE PUSH1 0x4 ADD PUSH2 0x496 SWAP4 SWAP3 SWAP2 SWAP1 PUSH2 0xA8F JUMP JUMPDEST PUSH1 0x20 PUSH1 0x40 MLOAD DUP1 DUP4 SUB DUP2 PUSH0 DUP8 GAS CALL ISZERO DUP1 ISZERO PUSH2 0x4B2 JUMPI RETURNDATASIZE PUSH0 DUP1 RETURNDATACOPY RETURNDATASIZE PUSH0 REVERT JUMPDEST POP POP POP POP PUSH1 0x40 MLOAD RETURNDATASIZE PUSH1 0x1F NOT PUSH1 0x1F DUP3 ADD AND DUP3 ADD DUP1 PUSH1 0x40 MSTORE POP DUP2 ADD SWAP1 PUSH2 0x4D6 SWAP2 SWAP1 PUSH2 0x9EC JUMP JUMPDEST POP CALLER PUSH20 0xFFFFFFFFFFFFFFFFFFFFFFFFFFFFFFFFFFFFFFFF AND PUSH2 0x8FC PUSH2 0x50C PUSH8 0xDE0B6B3A7640000 DUP5 PUSH2 0x712 SWAP1 SWAP2 SWAP1 PUSH4 0xFFFFFFFF AND JUMP JUMPDEST SWAP1 DUP2 ISZERO MUL SWAP1 PUSH1 0x40 MLOAD PUSH0 PUSH1 0x40 MLOAD DUP1 DUP4 SUB DUP2 DUP6 DUP9 DUP9 CALL SWAP4 POP POP POP POP ISZERO DUP1 ISZERO PUSH2 0x534 JUMPI RETURNDATASIZE PUSH0 DUP1 RETURNDATACOPY RETURNDATASIZE PUSH0 REVERT JUMPDEST POP POP POP JUMP JUMPDEST PUSH1 0x1 SLOAD DUP2 JUMP JUMPDEST PUSH0 CALLER SWAP1 POP SWAP1 JUMP JUMPDEST PUSH0 PUSH2 0x56F PUSH8 0xDE0B6B3A7640000 PUSH1 0x1 SLOAD CALLVALUE PUSH2 0x561 SWAP2 SWAP1 PUSH2 0xAC4 JUMP JUMPDEST PUSH2 0x727 SWAP1 SWAP2 SWAP1 PUSH4 0xFFFFFFFF AND JUMP JUMPDEST SWAP1 POP DUP1 PUSH0 DUP1 SLOAD SWAP1 PUSH2 0x100 EXP SWAP1 DIV PUSH20 0xFFFFFFFFFFFFFFFFFFFFFFFFFFFFFFFFFFFFFFFF AND PUSH20 0xFFFFFFFFFFFFFFFFFFFFFFFFFFFFFFFFFFFFFFFF AND PUSH4 0x70A08231 ADDRESS PUSH1 0x40 MLOAD DUP3 PUSH4 0xFFFFFFFF AND PUSH1 0xE0 SHL DUP2 MSTORE PUSH1 0x4 ADD PUSH2 0x5CA SWAP2 SWAP1 PUSH2 0x77B JUMP JUMPDEST PUSH1 0x20 PUSH1 0x40 MLOAD DUP1 DUP4 SUB DUP2 DUP7 GAS STATICCALL ISZERO DUP1 ISZERO PUSH2 0x5E5 JUMPI RETURNDATASIZE PUSH0 DUP1 RETURNDATACOPY RETURNDATASIZE PUSH0 REVERT JUMPDEST POP POP POP POP PUSH1 0x40 MLOAD RETURNDATASIZE PUSH1 0x1F NOT PUSH1 0x1F DUP3 ADD AND DUP3 ADD DUP1 PUSH1 0x40 MSTORE POP DUP2 ADD SWAP1 PUSH2 0x609 SWAP2 SWAP1 PUSH2 0x8A6 JUMP JUMPDEST LT ISZERO PUSH2 0x64A JUMPI PUSH1 0x40 MLOAD PUSH32 0x8C379A000000000000000000000000000000000000000000000000000000000 DUP2 MSTORE PUSH1 0x4 ADD PUSH2 0x641 SWAP1 PUSH2 0xB4F JUMP JUMPDEST PUSH1 0x40 MLOAD DUP1 SWAP2 SUB SWAP1 REVERT JUMPDEST PUSH0 DUP1 SLOAD SWAP1 PUSH2 0x100 EXP SWAP1 DIV PUSH20 0xFFFFFFFFFFFFFFFFFFFFFFFFFFFFFFFFFFFFFFFF AND PUSH20 0xFFFFFFFFFFFFFFFFFFFFFFFFFFFFFFFFFFFFFFFF AND PUSH4 0xA9059CBB CALLER DUP4 PUSH1 0x40 MLOAD DUP4 PUSH4 0xFFFFFFFF AND PUSH1 0xE0 SHL DUP2 MSTORE PUSH1 0x4 ADD PUSH2 0x6A4 SWAP3 SWAP2 SWAP1 PUSH2 0x990 JUMP JUMPDEST PUSH1 0x20 PUSH1 0x40 MLOAD DUP1 DUP4 SUB DUP2 PUSH0 DUP8 GAS CALL ISZERO DUP1 ISZERO PUSH2 0x6C0 JUMPI RETURNDATASIZE PUSH0 DUP1 RETURNDATACOPY RETURNDATASIZE PUSH0 REVERT JUMPDEST POP POP POP POP PUSH1 0x40 MLOAD RETURNDATASIZE PUSH1 0x1F NOT PUSH1 0x1F DUP3 ADD AND DUP3 ADD DUP1 PUSH1 0x40 MSTORE POP DUP2 ADD SWAP1 PUSH2 0x6E4 SWAP2 SWAP1 PUSH2 0x9EC JUMP JUMPDEST POP POP JUMP JUMPDEST PUSH0 ADDRESS SWAP1 POP SWAP1 JUMP JUMPDEST PUSH0 DUP1 SLOAD SWAP1 PUSH2 0x100 EXP SWAP1 DIV PUSH20 0xFFFFFFFFFFFFFFFFFFFFFFFFFFFFFFFFFFFFFFFF AND DUP2 JUMP JUMPDEST PUSH0 DUP2 DUP4 PUSH2 0x71F SWAP2 SWAP1 PUSH2 0xAC4 JUMP JUMPDEST SWAP1 POP SWAP3 SWAP2 POP POP JUMP JUMPDEST PUSH0 DUP2 DUP4 PUSH2 0x734 SWAP2 SWAP1 PUSH2 0x92B JUMP JUMPDEST SWAP1 POP SWAP3 SWAP2 POP POP JUMP JUMPDEST PUSH0 PUSH20 0xFFFFFFFFFFFFFFFFFFFFFFFFFFFFFFFFFFFFFFFF DUP3 AND SWAP1 POP SWAP2 SWAP1 POP JUMP JUMPDEST PUSH0 PUSH2 0x765 DUP3 PUSH2 0x73C JUMP JUMPDEST SWAP1 POP SWAP2 SWAP1 POP JUMP JUMPDEST PUSH2 0x775 DUP2 PUSH2 0x75B JUMP JUMPDEST DUP3 MSTORE POP POP JUMP JUMPDEST PUSH0 PUSH1 0x20 DUP3 ADD SWAP1 POP PUSH2 0x78E PUSH0 DUP4 ADD DUP5 PUSH2 0x76C JUMP JUMPDEST SWAP3 SWAP2 POP POP JUMP JUMPDEST PUSH0 DUP2 SWAP1 POP SWAP2 SWAP1 POP JUMP JUMPDEST PUSH2 0x7A6 DUP2 PUSH2 0x794 JUMP JUMPDEST DUP3 MSTORE POP POP JUMP JUMPDEST PUSH0 PUSH1 0x20 DUP3 ADD SWAP1 POP PUSH2 0x7BF PUSH0 DUP4 ADD DUP5 PUSH2 0x79D JUMP JUMPDEST SWAP3 SWAP2 POP POP JUMP JUMPDEST PUSH0 DUP1 REVERT JUMPDEST PUSH2 0x7D2 DUP2 PUSH2 0x794 JUMP JUMPDEST DUP2 EQ PUSH2 0x7DC JUMPI PUSH0 DUP1 REVERT JUMPDEST POP JUMP JUMPDEST PUSH0 DUP2 CALLDATALOAD SWAP1 POP PUSH2 0x7ED DUP2 PUSH2 0x7C9 JUMP JUMPDEST SWAP3 SWAP2 POP POP JUMP JUMPDEST PUSH0 PUSH1 0x20 DUP3 DUP5 SUB SLT ISZERO PUSH2 0x808 JUMPI PUSH2 0x807 PUSH2 0x7C5 JUMP JUMPDEST JUMPDEST PUSH0 PUSH2 0x815 DUP5 DUP3 DUP6 ADD PUSH2 0x7DF JUMP JUMPDEST SWAP2 POP POP SWAP3 SWAP2 POP POP JUMP JUMPDEST PUSH0 DUP2 SWAP1 POP SWAP2 SWAP1 POP JUMP JUMPDEST PUSH0 PUSH2 0x841 PUSH2 0x83C PUSH2 0x837 DUP5 PUSH2 0x73C JUMP JUMPDEST PUSH2 0x81E JUMP JUMPDEST PUSH2 0x73C JUMP JUMPDEST SWAP1 POP SWAP2 SWAP1 POP JUMP JUMPDEST PUSH0 PUSH2 0x852 DUP3 PUSH2 0x827 JUMP JUMPDEST SWAP1 POP SWAP2 SWAP1 POP JUMP JUMPDEST PUSH0 PUSH2 0x863 DUP3 PUSH2 0x848 JUMP JUMPDEST SWAP1 POP SWAP2 SWAP1 POP JUMP JUMPDEST PUSH2 0x873 DUP2 PUSH2 0x859 JUMP JUMPDEST DUP3 MSTORE POP POP JUMP JUMPDEST PUSH0 PUSH1 0x20 DUP3 ADD SWAP1 POP PUSH2 0x88C PUSH0 DUP4 ADD DUP5 PUSH2 0x86A JUMP JUMPDEST SWAP3 SWAP2 POP POP JUMP JUMPDEST PUSH0 DUP2 MLOAD SWAP1 POP PUSH2 0x8A0 DUP2 PUSH2 0x7C9 JUMP JUMPDEST SWAP3 SWAP2 POP POP JUMP JUMPDEST PUSH0 PUSH1 0x20 DUP3 DUP5 SUB SLT ISZERO PUSH2 0x8BB JUMPI PUSH2 0x8BA PUSH2 0x7C5 JUMP JUMPDEST JUMPDEST PUSH0 PUSH2 0x8C8 DUP5 DUP3 DUP6 ADD PUSH2 0x892 JUMP JUMPDEST SWAP2 POP POP SWAP3 SWAP2 POP POP JUMP JUMPDEST PUSH32 0x4E487B7100000000000000000000000000000000000000000000000000000000 PUSH0 MSTORE PUSH1 0x12 PUSH1 0x4 MSTORE PUSH1 0x24 PUSH0 REVERT JUMPDEST PUSH32 0x4E487B7100000000000000000000000000000000000000000000000000000000 PUSH0 MSTORE PUSH1 0x11 PUSH1 0x4 MSTORE PUSH1 0x24 PUSH0 REVERT JUMPDEST PUSH0 PUSH2 0x935 DUP3 PUSH2 0x794 JUMP JUMPDEST SWAP2 POP PUSH2 0x940 DUP4 PUSH2 0x794 JUMP JUMPDEST SWAP3 POP DUP3 PUSH2 0x950 JUMPI PUSH2 0x94F PUSH2 0x8D1 JUMP JUMPDEST JUMPDEST DUP3 DUP3 DIV SWAP1 POP SWAP3 SWAP2 POP POP JUMP JUMPDEST PUSH0 PUSH1 0x60 DUP3 ADD SWAP1 POP PUSH2 0x96E PUSH0 DUP4 ADD DUP7 PUSH2 0x79D JUMP JUMPDEST PUSH2 0x97B PUSH1 0x20 DUP4 ADD DUP6 PUSH2 0x79D JUMP JUMPDEST PUSH2 0x988 PUSH1 0x40 DUP4 ADD DUP5 PUSH2 0x79D JUMP JUMPDEST SWAP5 SWAP4 POP POP POP POP JUMP JUMPDEST PUSH0 PUSH1 0x40 DUP3 ADD SWAP1 POP PUSH2 0x9A3 PUSH0 DUP4 ADD DUP6 PUSH2 0x76C JUMP JUMPDEST PUSH2 0x9B0 PUSH1 0x20 DUP4 ADD DUP5 PUSH2 0x79D JUMP JUMPDEST SWAP4 SWAP3 POP POP POP JUMP JUMPDEST PUSH0 DUP2 ISZERO ISZERO SWAP1 POP SWAP2 SWAP1 POP JUMP JUMPDEST PUSH2 0x9CB DUP2 PUSH2 0x9B7 JUMP JUMPDEST DUP2 EQ PUSH2 0x9D5 JUMPI PUSH0 DUP1 REVERT JUMPDEST POP JUMP JUMPDEST PUSH0 DUP2 MLOAD SWAP1 POP PUSH2 0x9E6 DUP2 PUSH2 0x9C2 JUMP JUMPDEST SWAP3 SWAP2 POP POP JUMP JUMPDEST PUSH0 PUSH1 0x20 DUP3 DUP5 SUB SLT ISZERO PUSH2 0xA01 JUMPI PUSH2 0xA00 PUSH2 0x7C5 JUMP JUMPDEST JUMPDEST PUSH0 PUSH2 0xA0E DUP5 DUP3 DUP6 ADD PUSH2 0x9D8 JUMP JUMPDEST SWAP2 POP POP SWAP3 SWAP2 POP POP JUMP JUMPDEST PUSH0 DUP3 DUP3 MSTORE PUSH1 0x20 DUP3 ADD SWAP1 POP SWAP3 SWAP2 POP POP JUMP JUMPDEST PUSH32 0x417070726F76616C206661696C65640000000000000000000000000000000000 PUSH0 DUP3 ADD MSTORE POP JUMP JUMPDEST PUSH0 PUSH2 0xA5B PUSH1 0xF DUP4 PUSH2 0xA17 JUMP JUMPDEST SWAP2 POP PUSH2 0xA66 DUP3 PUSH2 0xA27 JUMP JUMPDEST PUSH1 0x20 DUP3 ADD SWAP1 POP SWAP2 SWAP1 POP JUMP JUMPDEST PUSH0 PUSH1 0x20 DUP3 ADD SWAP1 POP DUP2 DUP2 SUB PUSH0 DUP4 ADD MSTORE PUSH2 0xA88 DUP2 PUSH2 0xA4F JUMP JUMPDEST SWAP1 POP SWAP2 SWAP1 POP JUMP JUMPDEST PUSH0 PUSH1 0x60 DUP3 ADD SWAP1 POP PUSH2 0xAA2 PUSH0 DUP4 ADD DUP7 PUSH2 0x76C JUMP JUMPDEST PUSH2 0xAAF PUSH1 0x20 DUP4 ADD DUP6 PUSH2 0x76C JUMP JUMPDEST PUSH2 0xABC PUSH1 0x40 DUP4 ADD DUP5 PUSH2 0x79D JUMP JUMPDEST SWAP5 SWAP4 POP POP POP POP JUMP JUMPDEST PUSH0 PUSH2 0xACE DUP3 PUSH2 0x794 JUMP JUMPDEST SWAP2 POP PUSH2 0xAD9 DUP4 PUSH2 0x794 JUMP JUMPDEST SWAP3 POP DUP3 DUP3 MUL PUSH2 0xAE7 DUP2 PUSH2 0x794 JUMP JUMPDEST SWAP2 POP DUP3 DUP3 DIV DUP5 EQ DUP4 ISZERO OR PUSH2 0xAFE JUMPI PUSH2 0xAFD PUSH2 0x8FE JUMP JUMPDEST JUMPDEST POP SWAP3 SWAP2 POP POP JUMP JUMPDEST PUSH32 0x4E6F7420656E6F75676820546F6B656E73200000000000000000000000000000 PUSH0 DUP3 ADD MSTORE POP JUMP JUMPDEST PUSH0 PUSH2 0xB39 PUSH1 0x12 DUP4 PUSH2 0xA17 JUMP JUMPDEST SWAP2 POP PUSH2 0xB44 DUP3 PUSH2 0xB05 JUMP JUMPDEST PUSH1 0x20 DUP3 ADD SWAP1 POP SWAP2 SWAP1 POP JUMP JUMPDEST PUSH0 PUSH1 0x20 DUP3 ADD SWAP1 POP DUP2 DUP2 SUB PUSH0 DUP4 ADD MSTORE PUSH2 0xB66 DUP2 PUSH2 0xB2D JUMP JUMPDEST SWAP1 POP SWAP2 SWAP1 POP JUMP INVALID LOG2 PUSH5 0x6970667358 0x22 SLT KECCAK256 0xE5 0x5C 0xC3 PUSH29 0x96A62FEBAEC92DD76EF180B33B6C5D3D26F3AF3CDAC3C15BCA60B7C164 PUSH20 0x6F6C634300081400330000000000000000000000 "
				},
				"gasEstimates": {
					"creation": {
						"codeDepositCost": "595800",
						"executionCost": "infinite",
						"totalCost": "infinite"
					},
					"external": {
						"buyToken()": "infinite",
						"getBalanceOfContract()": "infinite",
						"getMsgSender()": "379",
						"getThis()": "423",
						"getToken()": "2516",
						"rate()": "2492",
						"sellToken(uint256)": "infinite",
						"token()": "infinite"
					}
				},
				"methodIdentifiers": {
					"buyToken()": "a4821719",
					"getBalanceOfContract()": "22968885",
					"getMsgSender()": "7a6ce2e1",
					"getThis()": "b8368615",
					"getToken()": "21df0da7",
					"rate()": "2c4e722e",
					"sellToken(uint256)": "2397e4d7",
					"token()": "fc0c546a"
				}
			},
			"storageLayout": {
				"storage": [
					{
						"astId": 6,
						"contract": ".deps/contracts/EtherSwap.sol:EthSwap",
						"label": "token",
						"offset": 0,
						"slot": "0",
						"type": "t_contract(ERC20)775"
					},
					{
						"astId": 9,
						"contract": ".deps/contracts/EtherSwap.sol:EthSwap",
						"label": "rate",
						"offset": 0,
						"slot": "1",
						"type": "t_uint256"
					}
				],
				"types": {
					"t_contract(ERC20)775": {
						"encoding": "inplace",
						"label": "contract ERC20",
						"numberOfBytes": "20"
					},
					"t_uint256": {
						"encoding": "inplace",
						"label": "uint256",
						"numberOfBytes": "32"
					}
				}
			},
			"userdoc": {
				"kind": "user",
				"methods": {},
				"version": 1
			}
		}
	}
}