{
	"data": {
		"bytecode": {
			"linkReferences": {},
			"object": "608060405234801561000f575f80fd5b5061128e8061001d5f395ff3fe608060405234801561000f575f80fd5b5060043610610060575f3560e01c80634a9760e11461006457806375647ac614610094578063cb0ab425146100c4578063e1e322ed146100f4578063e939567914610124578063f0faed4314610154575b5f80fd5b61007e600480360381019061007991906107d3565b610184565b60405161008b919061092a565b60405180910390f35b6100ae60048036038101906100a9919061094a565b6101db565b6040516100bb919061092a565b60405180910390f35b6100de60048036038101906100d991906109e2565b6102b5565b6040516100eb919061092a565b60405180910390f35b61010e600480360381019061010991906109e2565b61040b565b60405161011b919061092a565b60405180910390f35b61013e60048036038101906101399190610a0d565b6104a5565b60405161014b919061092a565b60405180910390f35b61016e60048036038101906101699190610a38565b6105fe565b60405161017b9190610aac565b60405180910390f35b60605f6101928560026101db565b90508761019e886104a5565b8783876101aa886104a5565b6040516020016101bf96959493929190610aff565b6040516020818303038152906040529150509695505050505050565b60605f8303610221576040518060400160405280600181526020017f300000000000000000000000000000000000000000000000000000000000000081525090506102af565b5f82600a61022f9190610cb2565b8461023a9190610d29565b90505f83600a61024a9190610cb2565b856102559190610d59565b90505f610261836104a5565b90505f61026d836104a5565b905060605f8411156102a257828260405160200161028c929190610dd3565b60405160208183030381529060405290506102a6565b8290505b80955050505050505b92915050565b60605f805f8473ffffffffffffffffffffffffffffffffffffffff1673ffffffffffffffffffffffffffffffffffffffff1681526020019081526020015f2080546102ff90610e2e565b905011610341576040517f08c379a000000000000000000000000000000000000000000000000000000000815260040161033890610ef4565b60405180910390fd5b5f808373ffffffffffffffffffffffffffffffffffffffff1673ffffffffffffffffffffffffffffffffffffffff1681526020019081526020015f20805461038890610e2e565b80601f01602080910402602001604051908101604052809291908181526020018280546103b490610e2e565b80156103ff5780601f106103d6576101008083540402835291602001916103ff565b820191905f5260205f20905b8154815290600101906020018083116103e257829003601f168201915b50505050509050919050565b5f602052805f5260405f205f91509050805461042690610e2e565b80601f016020809104026020016040519081016040528092919081815260200182805461045290610e2e565b801561049d5780601f106104745761010080835404028352916020019161049d565b820191905f5260205f20905b81548152906001019060200180831161048057829003601f168201915b505050505081565b60605f82036104eb576040518060400160405280600181526020017f300000000000000000000000000000000000000000000000000000000000000081525090506105f9565b5f8290505f5b5f821461051a57808061050390610f12565b915050600a826105139190610d29565b91506104f1565b5f8167ffffffffffffffff8111156105355761053461067c565b5b6040519080825280601f01601f1916602001820160405280156105675781602001600182028036833780820191505090505b5090505b5f85146105f25760018261057f9190610f59565b9150600a8561058e9190610d59565b603061059a9190610f8c565b60f81b8183815181106105b0576105af610fbf565b5b60200101907effffffffffffffffffffffffffffffffffffffffffffffffffffffffffffff191690815f1a905350600a856105eb9190610d29565b945061056b565b8093505050505b919050565b5f815f808573ffffffffffffffffffffffffffffffffffffffff1673ffffffffffffffffffffffffffffffffffffffff1681526020019081526020015f2090816106489190611189565b506001905092915050565b5f604051905090565b5f80fd5b5f80fd5b5f80fd5b5f80fd5b5f601f19601f8301169050919050565b7f4e487b71000000000000000000000000000000000000000000000000000000005f52604160045260245ffd5b6106b28261066c565b810181811067ffffffffffffffff821117156106d1576106d061067c565b5b80604052505050565b5f6106e3610653565b90506106ef82826106a9565b919050565b5f67ffffffffffffffff82111561070e5761070d61067c565b5b6107178261066c565b9050602081019050919050565b828183375f83830152505050565b5f61074461073f846106f4565b6106da565b9050828152602081018484840111156107605761075f610668565b5b61076b848285610724565b509392505050565b5f82601f83011261078757610786610664565b5b8135610797848260208601610732565b91505092915050565b5f819050919050565b6107b2816107a0565b81146107bc575f80fd5b50565b5f813590506107cd816107a9565b92915050565b5f805f805f8060c087890312156107ed576107ec61065c565b5b5f87013567ffffffffffffffff81111561080a57610809610660565b5b61081689828a01610773565b965050602061082789828a016107bf565b955050604087013567ffffffffffffffff81111561084857610847610660565b5b61085489828a01610773565b945050606061086589828a016107bf565b935050608087013567ffffffffffffffff81111561088657610885610660565b5b61089289828a01610773565b92505060a06108a389828a016107bf565b9150509295509295509295565b5f81519050919050565b5f82825260208201905092915050565b5f5b838110156108e75780820151818401526020810190506108cc565b5f8484015250505050565b5f6108fc826108b0565b61090681856108ba565b93506109168185602086016108ca565b61091f8161066c565b840191505092915050565b5f6020820190508181035f83015261094281846108f2565b905092915050565b5f80604083850312156109605761095f61065c565b5b5f61096d858286016107bf565b925050602061097e858286016107bf565b9150509250929050565b5f73ffffffffffffffffffffffffffffffffffffffff82169050919050565b5f6109b182610988565b9050919050565b6109c1816109a7565b81146109cb575f80fd5b50565b5f813590506109dc816109b8565b92915050565b5f602082840312156109f7576109f661065c565b5b5f610a04848285016109ce565b91505092915050565b5f60208284031215610a2257610a2161065c565b5b5f610a2f848285016107bf565b91505092915050565b5f8060408385031215610a4e57610a4d61065c565b5b5f610a5b858286016109ce565b925050602083013567ffffffffffffffff811115610a7c57610a7b610660565b5b610a8885828601610773565b9150509250929050565b5f8115159050919050565b610aa681610a92565b82525050565b5f602082019050610abf5f830184610a9d565b92915050565b5f81905092915050565b5f610ad9826108b0565b610ae38185610ac5565b9350610af38185602086016108ca565b80840191505092915050565b5f610b0a8289610acf565b9150610b168288610acf565b9150610b228287610acf565b9150610b2e8286610acf565b9150610b3a8285610acf565b9150610b468284610acf565b9150819050979650505050505050565b7f4e487b71000000000000000000000000000000000000000000000000000000005f52601160045260245ffd5b5f8160011c9050919050565b5f808291508390505b6001851115610bd857808604811115610bb457610bb3610b56565b5b6001851615610bc35780820291505b8081029050610bd185610b83565b9450610b98565b94509492505050565b5f82610bf05760019050610cab565b81610bfd575f9050610cab565b8160018114610c135760028114610c1d57610c4c565b6001915050610cab565b60ff841115610c2f57610c2e610b56565b5b8360020a915084821115610c4657610c45610b56565b5b50610cab565b5060208310610133831016604e8410600b8410161715610c815782820a905083811115610c7c57610c7b610b56565b5b610cab565b610c8e8484846001610b8f565b92509050818404811115610ca557610ca4610b56565b5b81810290505b9392505050565b5f610cbc826107a0565b9150610cc7836107a0565b9250610cf47fffffffffffffffffffffffffffffffffffffffffffffffffffffffffffffffff8484610be1565b905092915050565b7f4e487b71000000000000000000000000000000000000000000000000000000005f52601260045260245ffd5b5f610d33826107a0565b9150610d3e836107a0565b925082610d4e57610d4d610cfc565b5b828204905092915050565b5f610d63826107a0565b9150610d6e836107a0565b925082610d7e57610d7d610cfc565b5b828206905092915050565b7f2e000000000000000000000000000000000000000000000000000000000000005f82015250565b5f610dbd600183610ac5565b9150610dc882610d89565b600182019050919050565b5f610dde8285610acf565b9150610de982610db1565b9150610df58284610acf565b91508190509392505050565b7f4e487b71000000000000000000000000000000000000000000000000000000005f52602260045260245ffd5b5f6002820490506001821680610e4557607f821691505b602082108103610e5857610e57610e01565b5b50919050565b7f495046532068617368206e6f7420666f756e6420666f7220746865206163636f5f8201527f756e742e20506c6561736520736176652049504653486173682061626f75742060208201527f74686973206163636f756e742e00000000000000000000000000000000000000604082015250565b5f610ede604d836108ba565b9150610ee982610e5e565b606082019050919050565b5f6020820190508181035f830152610f0b81610ed2565b9050919050565b5f610f1c826107a0565b91507fffffffffffffffffffffffffffffffffffffffffffffffffffffffffffffffff8203610f4e57610f4d610b56565b5b600182019050919050565b5f610f63826107a0565b9150610f6e836107a0565b9250828203905081811115610f8657610f85610b56565b5b92915050565b5f610f96826107a0565b9150610fa1836107a0565b9250828201905080821115610fb957610fb8610b56565b5b92915050565b7f4e487b71000000000000000000000000000000000000000000000000000000005f52603260045260245ffd5b5f819050815f5260205f209050919050565b5f6020601f8301049050919050565b5f82821b905092915050565b5f600883026110487fffffffffffffffffffffffffffffffffffffffffffffffffffffffffffffffff8261100d565b611052868361100d565b95508019841693508086168417925050509392505050565b5f819050919050565b5f61108d611088611083846107a0565b61106a565b6107a0565b9050919050565b5f819050919050565b6110a683611073565b6110ba6110b282611094565b848454611019565b825550505050565b5f90565b6110ce6110c2565b6110d981848461109d565b505050565b5b818110156110fc576110f15f826110c6565b6001810190506110df565b5050565b601f8211156111415761111281610fec565b61111b84610ffe565b8101602085101561112a578190505b61113e61113685610ffe565b8301826110de565b50505b505050565b5f82821c905092915050565b5f6111615f1984600802611146565b1980831691505092915050565b5f6111798383611152565b9150826002028217905092915050565b611192826108b0565b67ffffffffffffffff8111156111ab576111aa61067c565b5b6111b58254610e2e565b6111c0828285611100565b5f60209050601f8311600181146111f1575f84156111df578287015190505b6111e9858261116e565b865550611250565b601f1984166111ff86610fec565b5f5b8281101561122657848901518255600182019150602085019450602081019050611201565b86831015611243578489015161123f601f891682611152565b8355505b6001600288020188555050505b50505050505056fea2646970667358221220cb6f2901740ab46108c0818576cafc2b4b7a169cf7702e08a262b4d8342b9b0164736f6c63430008140033",
			"opcodes": "PUSH1 0x80 PUSH1 0x40 MSTORE CALLVALUE DUP1 ISZERO PUSH2 0xF JUMPI PUSH0 DUP1 REVERT JUMPDEST POP PUSH2 0x128E DUP1 PUSH2 0x1D PUSH0 CODECOPY PUSH0 RETURN INVALID PUSH1 0x80 PUSH1 0x40 MSTORE CALLVALUE DUP1 ISZERO PUSH2 0xF JUMPI PUSH0 DUP1 REVERT JUMPDEST POP PUSH1 0x4 CALLDATASIZE LT PUSH2 0x60 JUMPI PUSH0 CALLDATALOAD PUSH1 0xE0 SHR DUP1 PUSH4 0x4A9760E1 EQ PUSH2 0x64 JUMPI DUP1 PUSH4 0x75647AC6 EQ PUSH2 0x94 JUMPI DUP1 PUSH4 0xCB0AB425 EQ PUSH2 0xC4 JUMPI DUP1 PUSH4 0xE1E322ED EQ PUSH2 0xF4 JUMPI DUP1 PUSH4 0xE9395679 EQ PUSH2 0x124 JUMPI DUP1 PUSH4 0xF0FAED43 EQ PUSH2 0x154 JUMPI JUMPDEST PUSH0 DUP1 REVERT JUMPDEST PUSH2 0x7E PUSH1 0x4 DUP1 CALLDATASIZE SUB DUP2 ADD SWAP1 PUSH2 0x79 SWAP2 SWAP1 PUSH2 0x7D3 JUMP JUMPDEST PUSH2 0x184 JUMP JUMPDEST PUSH1 0x40 MLOAD PUSH2 0x8B SWAP2 SWAP1 PUSH2 0x92A JUMP JUMPDEST PUSH1 0x40 MLOAD DUP1 SWAP2 SUB SWAP1 RETURN JUMPDEST PUSH2 0xAE PUSH1 0x4 DUP1 CALLDATASIZE SUB DUP2 ADD SWAP1 PUSH2 0xA9 SWAP2 SWAP1 PUSH2 0x94A JUMP JUMPDEST PUSH2 0x1DB JUMP JUMPDEST PUSH1 0x40 MLOAD PUSH2 0xBB SWAP2 SWAP1 PUSH2 0x92A JUMP JUMPDEST PUSH1 0x40 MLOAD DUP1 SWAP2 SUB SWAP1 RETURN JUMPDEST PUSH2 0xDE PUSH1 0x4 DUP1 CALLDATASIZE SUB DUP2 ADD SWAP1 PUSH2 0xD9 SWAP2 SWAP1 PUSH2 0x9E2 JUMP JUMPDEST PUSH2 0x2B5 JUMP JUMPDEST PUSH1 0x40 MLOAD PUSH2 0xEB SWAP2 SWAP1 PUSH2 0x92A JUMP JUMPDEST PUSH1 0x40 MLOAD DUP1 SWAP2 SUB SWAP1 RETURN JUMPDEST PUSH2 0x10E PUSH1 0x4 DUP1 CALLDATASIZE SUB DUP2 ADD SWAP1 PUSH2 0x109 SWAP2 SWAP1 PUSH2 0x9E2 JUMP JUMPDEST PUSH2 0x40B JUMP JUMPDEST PUSH1 0x40 MLOAD PUSH2 0x11B SWAP2 SWAP1 PUSH2 0x92A JUMP JUMPDEST PUSH1 0x40 MLOAD DUP1 SWAP2 SUB SWAP1 RETURN JUMPDEST PUSH2 0x13E PUSH1 0x4 DUP1 CALLDATASIZE SUB DUP2 ADD SWAP1 PUSH2 0x139 SWAP2 SWAP1 PUSH2 0xA0D JUMP JUMPDEST PUSH2 0x4A5 JUMP JUMPDEST PUSH1 0x40 MLOAD PUSH2 0x14B SWAP2 SWAP1 PUSH2 0x92A JUMP JUMPDEST PUSH1 0x40 MLOAD DUP1 SWAP2 SUB SWAP1 RETURN JUMPDEST PUSH2 0x16E PUSH1 0x4 DUP1 CALLDATASIZE SUB DUP2 ADD SWAP1 PUSH2 0x169 SWAP2 SWAP1 PUSH2 0xA38 JUMP JUMPDEST PUSH2 0x5FE JUMP JUMPDEST PUSH1 0x40 MLOAD PUSH2 0x17B SWAP2 SWAP1 PUSH2 0xAAC JUMP JUMPDEST PUSH1 0x40 MLOAD DUP1 SWAP2 SUB SWAP1 RETURN JUMPDEST PUSH1 0x60 PUSH0 PUSH2 0x192 DUP6 PUSH1 0x2 PUSH2 0x1DB JUMP JUMPDEST SWAP1 POP DUP8 PUSH2 0x19E DUP9 PUSH2 0x4A5 JUMP JUMPDEST DUP8 DUP4 DUP8 PUSH2 0x1AA DUP9 PUSH2 0x4A5 JUMP JUMPDEST PUSH1 0x40 MLOAD PUSH1 0x20 ADD PUSH2 0x1BF SWAP7 SWAP6 SWAP5 SWAP4 SWAP3 SWAP2 SWAP1 PUSH2 0xAFF JUMP JUMPDEST PUSH1 0x40 MLOAD PUSH1 0x20 DUP2 DUP4 SUB SUB DUP2 MSTORE SWAP1 PUSH1 0x40 MSTORE SWAP2 POP POP SWAP7 SWAP6 POP POP POP POP POP POP JUMP JUMPDEST PUSH1 0x60 PUSH0 DUP4 SUB PUSH2 0x221 JUMPI PUSH1 0x40 MLOAD DUP1 PUSH1 0x40 ADD PUSH1 0x40 MSTORE DUP1 PUSH1 0x1 DUP2 MSTORE PUSH1 0x20 ADD PUSH32 0x3000000000000000000000000000000000000000000000000000000000000000 DUP2 MSTORE POP SWAP1 POP PUSH2 0x2AF JUMP JUMPDEST PUSH0 DUP3 PUSH1 0xA PUSH2 0x22F SWAP2 SWAP1 PUSH2 0xCB2 JUMP JUMPDEST DUP5 PUSH2 0x23A SWAP2 SWAP1 PUSH2 0xD29 JUMP JUMPDEST SWAP1 POP PUSH0 DUP4 PUSH1 0xA PUSH2 0x24A SWAP2 SWAP1 PUSH2 0xCB2 JUMP JUMPDEST DUP6 PUSH2 0x255 SWAP2 SWAP1 PUSH2 0xD59 JUMP JUMPDEST SWAP1 POP PUSH0 PUSH2 0x261 DUP4 PUSH2 0x4A5 JUMP JUMPDEST SWAP1 POP PUSH0 PUSH2 0x26D DUP4 PUSH2 0x4A5 JUMP JUMPDEST SWAP1 POP PUSH1 0x60 PUSH0 DUP5 GT ISZERO PUSH2 0x2A2 JUMPI DUP3 DUP3 PUSH1 0x40 MLOAD PUSH1 0x20 ADD PUSH2 0x28C SWAP3 SWAP2 SWAP1 PUSH2 0xDD3 JUMP JUMPDEST PUSH1 0x40 MLOAD PUSH1 0x20 DUP2 DUP4 SUB SUB DUP2 MSTORE SWAP1 PUSH1 0x40 MSTORE SWAP1 POP PUSH2 0x2A6 JUMP JUMPDEST DUP3 SWAP1 POP JUMPDEST DUP1 SWAP6 POP POP POP POP POP POP JUMPDEST SWAP3 SWAP2 POP POP JUMP JUMPDEST PUSH1 0x60 PUSH0 DUP1 PUSH0 DUP5 PUSH20 0xFFFFFFFFFFFFFFFFFFFFFFFFFFFFFFFFFFFFFFFF AND PUSH20 0xFFFFFFFFFFFFFFFFFFFFFFFFFFFFFFFFFFFFFFFF AND DUP2 MSTORE PUSH1 0x20 ADD SWAP1 DUP2 MSTORE PUSH1 0x20 ADD PUSH0 KECCAK256 DUP1 SLOAD PUSH2 0x2FF SWAP1 PUSH2 0xE2E JUMP JUMPDEST SWAP1 POP GT PUSH2 0x341 JUMPI PUSH1 0x40 MLOAD PUSH32 0x8C379A000000000000000000000000000000000000000000000000000000000 DUP2 MSTORE PUSH1 0x4 ADD PUSH2 0x338 SWAP1 PUSH2 0xEF4 JUMP JUMPDEST PUSH1 0x40 MLOAD DUP1 SWAP2 SUB SWAP1 REVERT JUMPDEST PUSH0 DUP1 DUP4 PUSH20 0xFFFFFFFFFFFFFFFFFFFFFFFFFFFFFFFFFFFFFFFF AND PUSH20 0xFFFFFFFFFFFFFFFFFFFFFFFFFFFFFFFFFFFFFFFF AND DUP2 MSTORE PUSH1 0x20 ADD SWAP1 DUP2 MSTORE PUSH1 0x20 ADD PUSH0 KECCAK256 DUP1 SLOAD PUSH2 0x388 SWAP1 PUSH2 0xE2E JUMP JUMPDEST DUP1 PUSH1 0x1F ADD PUSH1 0x20 DUP1 SWAP2 DIV MUL PUSH1 0x20 ADD PUSH1 0x40 MLOAD SWAP1 DUP2 ADD PUSH1 0x40 MSTORE DUP1 SWAP3 SWAP2 SWAP1 DUP2 DUP2 MSTORE PUSH1 0x20 ADD DUP3 DUP1 SLOAD PUSH2 0x3B4 SWAP1 PUSH2 0xE2E JUMP JUMPDEST DUP1 ISZERO PUSH2 0x3FF JUMPI DUP1 PUSH1 0x1F LT PUSH2 0x3D6 JUMPI PUSH2 0x100 DUP1 DUP4 SLOAD DIV MUL DUP4 MSTORE SWAP2 PUSH1 0x20 ADD SWAP2 PUSH2 0x3FF JUMP JUMPDEST DUP3 ADD SWAP2 SWAP1 PUSH0 MSTORE PUSH1 0x20 PUSH0 KECCAK256 SWAP1 JUMPDEST DUP2 SLOAD DUP2 MSTORE SWAP1 PUSH1 0x1 ADD SWAP1 PUSH1 0x20 ADD DUP1 DUP4 GT PUSH2 0x3E2 JUMPI DUP3 SWAP1 SUB PUSH1 0x1F AND DUP3 ADD SWAP2 JUMPDEST POP POP POP POP POP SWAP1 POP SWAP2 SWAP1 POP JUMP JUMPDEST PUSH0 PUSH1 0x20 MSTORE DUP1 PUSH0 MSTORE PUSH1 0x40 PUSH0 KECCAK256 PUSH0 SWAP2 POP SWAP1 POP DUP1 SLOAD PUSH2 0x426 SWAP1 PUSH2 0xE2E JUMP JUMPDEST DUP1 PUSH1 0x1F ADD PUSH1 0x20 DUP1 SWAP2 DIV MUL PUSH1 0x20 ADD PUSH1 0x40 MLOAD SWAP1 DUP2 ADD PUSH1 0x40 MSTORE DUP1 SWAP3 SWAP2 SWAP1 DUP2 DUP2 MSTORE PUSH1 0x20 ADD DUP3 DUP1 SLOAD PUSH2 0x452 SWAP1 PUSH2 0xE2E JUMP JUMPDEST DUP1 ISZERO PUSH2 0x49D JUMPI DUP1 PUSH1 0x1F LT PUSH2 0x474 JUMPI PUSH2 0x100 DUP1 DUP4 SLOAD DIV MUL DUP4 MSTORE SWAP2 PUSH1 0x20 ADD SWAP2 PUSH2 0x49D JUMP JUMPDEST DUP3 ADD SWAP2 SWAP1 PUSH0 MSTORE PUSH1 0x20 PUSH0 KECCAK256 SWAP1 JUMPDEST DUP2 SLOAD DUP2 MSTORE SWAP1 PUSH1 0x1 ADD SWAP1 PUSH1 0x20 ADD DUP1 DUP4 GT PUSH2 0x480 JUMPI DUP3 SWAP1 SUB PUSH1 0x1F AND DUP3 ADD SWAP2 JUMPDEST POP POP POP POP POP DUP2 JUMP JUMPDEST PUSH1 0x60 PUSH0 DUP3 SUB PUSH2 0x4EB JUMPI PUSH1 0x40 MLOAD DUP1 PUSH1 0x40 ADD PUSH1 0x40 MSTORE DUP1 PUSH1 0x1 DUP2 MSTORE PUSH1 0x20 ADD PUSH32 0x3000000000000000000000000000000000000000000000000000000000000000 DUP2 MSTORE POP SWAP1 POP PUSH2 0x5F9 JUMP JUMPDEST PUSH0 DUP3 SWAP1 POP PUSH0 JUMPDEST PUSH0 DUP3 EQ PUSH2 0x51A JUMPI DUP1 DUP1 PUSH2 0x503 SWAP1 PUSH2 0xF12 JUMP JUMPDEST SWAP2 POP POP PUSH1 0xA DUP3 PUSH2 0x513 SWAP2 SWAP1 PUSH2 0xD29 JUMP JUMPDEST SWAP2 POP PUSH2 0x4F1 JUMP JUMPDEST PUSH0 DUP2 PUSH8 0xFFFFFFFFFFFFFFFF DUP2 GT ISZERO PUSH2 0x535 JUMPI PUSH2 0x534 PUSH2 0x67C JUMP JUMPDEST JUMPDEST PUSH1 0x40 MLOAD SWAP1 DUP1 DUP3 MSTORE DUP1 PUSH1 0x1F ADD PUSH1 0x1F NOT AND PUSH1 0x20 ADD DUP3 ADD PUSH1 0x40 MSTORE DUP1 ISZERO PUSH2 0x567 JUMPI DUP2 PUSH1 0x20 ADD PUSH1 0x1 DUP3 MUL DUP1 CALLDATASIZE DUP4 CALLDATACOPY DUP1 DUP3 ADD SWAP2 POP POP SWAP1 POP JUMPDEST POP SWAP1 POP JUMPDEST PUSH0 DUP6 EQ PUSH2 0x5F2 JUMPI PUSH1 0x1 DUP3 PUSH2 0x57F SWAP2 SWAP1 PUSH2 0xF59 JUMP JUMPDEST SWAP2 POP PUSH1 0xA DUP6 PUSH2 0x58E SWAP2 SWAP1 PUSH2 0xD59 JUMP JUMPDEST PUSH1 0x30 PUSH2 0x59A SWAP2 SWAP1 PUSH2 0xF8C JUMP JUMPDEST PUSH1 0xF8 SHL DUP2 DUP4 DUP2 MLOAD DUP2 LT PUSH2 0x5B0 JUMPI PUSH2 0x5AF PUSH2 0xFBF JUMP JUMPDEST JUMPDEST PUSH1 0x20 ADD ADD SWAP1 PUSH31 0xFFFFFFFFFFFFFFFFFFFFFFFFFFFFFFFFFFFFFFFFFFFFFFFFFFFFFFFFFFFFFF NOT AND SWAP1 DUP2 PUSH0 BYTE SWAP1 MSTORE8 POP PUSH1 0xA DUP6 PUSH2 0x5EB SWAP2 SWAP1 PUSH2 0xD29 JUMP JUMPDEST SWAP5 POP PUSH2 0x56B JUMP JUMPDEST DUP1 SWAP4 POP POP POP POP JUMPDEST SWAP2 SWAP1 POP JUMP JUMPDEST PUSH0 DUP2 PUSH0 DUP1 DUP6 PUSH20 0xFFFFFFFFFFFFFFFFFFFFFFFFFFFFFFFFFFFFFFFF AND PUSH20 0xFFFFFFFFFFFFFFFFFFFFFFFFFFFFFFFFFFFFFFFF AND DUP2 MSTORE PUSH1 0x20 ADD SWAP1 DUP2 MSTORE PUSH1 0x20 ADD PUSH0 KECCAK256 SWAP1 DUP2 PUSH2 0x648 SWAP2 SWAP1 PUSH2 0x1189 JUMP JUMPDEST POP PUSH1 0x1 SWAP1 POP SWAP3 SWAP2 POP POP JUMP JUMPDEST PUSH0 PUSH1 0x40 MLOAD SWAP1 POP SWAP1 JUMP JUMPDEST PUSH0 DUP1 REVERT JUMPDEST PUSH0 DUP1 REVERT JUMPDEST PUSH0 DUP1 REVERT JUMPDEST PUSH0 DUP1 REVERT JUMPDEST PUSH0 PUSH1 0x1F NOT PUSH1 0x1F DUP4 ADD AND SWAP1 POP SWAP2 SWAP1 POP JUMP JUMPDEST PUSH32 0x4E487B7100000000000000000000000000000000000000000000000000000000 PUSH0 MSTORE PUSH1 0x41 PUSH1 0x4 MSTORE PUSH1 0x24 PUSH0 REVERT JUMPDEST PUSH2 0x6B2 DUP3 PUSH2 0x66C JUMP JUMPDEST DUP2 ADD DUP2 DUP2 LT PUSH8 0xFFFFFFFFFFFFFFFF DUP3 GT OR ISZERO PUSH2 0x6D1 JUMPI PUSH2 0x6D0 PUSH2 0x67C JUMP JUMPDEST JUMPDEST DUP1 PUSH1 0x40 MSTORE POP POP POP JUMP JUMPDEST PUSH0 PUSH2 0x6E3 PUSH2 0x653 JUMP JUMPDEST SWAP1 POP PUSH2 0x6EF DUP3 DUP3 PUSH2 0x6A9 JUMP JUMPDEST SWAP2 SWAP1 POP JUMP JUMPDEST PUSH0 PUSH8 0xFFFFFFFFFFFFFFFF DUP3 GT ISZERO PUSH2 0x70E JUMPI PUSH2 0x70D PUSH2 0x67C JUMP JUMPDEST JUMPDEST PUSH2 0x717 DUP3 PUSH2 0x66C JUMP JUMPDEST SWAP1 POP PUSH1 0x20 DUP2 ADD SWAP1 POP SWAP2 SWAP1 POP JUMP JUMPDEST DUP3 DUP2 DUP4 CALLDATACOPY PUSH0 DUP4 DUP4 ADD MSTORE POP POP POP JUMP JUMPDEST PUSH0 PUSH2 0x744 PUSH2 0x73F DUP5 PUSH2 0x6F4 JUMP JUMPDEST PUSH2 0x6DA JUMP JUMPDEST SWAP1 POP DUP3 DUP2 MSTORE PUSH1 0x20 DUP2 ADD DUP5 DUP5 DUP5 ADD GT ISZERO PUSH2 0x760 JUMPI PUSH2 0x75F PUSH2 0x668 JUMP JUMPDEST JUMPDEST PUSH2 0x76B DUP5 DUP3 DUP6 PUSH2 0x724 JUMP JUMPDEST POP SWAP4 SWAP3 POP POP POP JUMP JUMPDEST PUSH0 DUP3 PUSH1 0x1F DUP4 ADD SLT PUSH2 0x787 JUMPI PUSH2 0x786 PUSH2 0x664 JUMP JUMPDEST JUMPDEST DUP2 CALLDATALOAD PUSH2 0x797 DUP5 DUP3 PUSH1 0x20 DUP7 ADD PUSH2 0x732 JUMP JUMPDEST SWAP2 POP POP SWAP3 SWAP2 POP POP JUMP JUMPDEST PUSH0 DUP2 SWAP1 POP SWAP2 SWAP1 POP JUMP JUMPDEST PUSH2 0x7B2 DUP2 PUSH2 0x7A0 JUMP JUMPDEST DUP2 EQ PUSH2 0x7BC JUMPI PUSH0 DUP1 REVERT JUMPDEST POP JUMP JUMPDEST PUSH0 DUP2 CALLDATALOAD SWAP1 POP PUSH2 0x7CD DUP2 PUSH2 0x7A9 JUMP JUMPDEST SWAP3 SWAP2 POP POP JUMP JUMPDEST PUSH0 DUP1 PUSH0 DUP1 PUSH0 DUP1 PUSH1 0xC0 DUP8 DUP10 SUB SLT ISZERO PUSH2 0x7ED JUMPI PUSH2 0x7EC PUSH2 0x65C JUMP JUMPDEST JUMPDEST PUSH0 DUP8 ADD CALLDATALOAD PUSH8 0xFFFFFFFFFFFFFFFF DUP2 GT ISZERO PUSH2 0x80A JUMPI PUSH2 0x809 PUSH2 0x660 JUMP JUMPDEST JUMPDEST PUSH2 0x816 DUP10 DUP3 DUP11 ADD PUSH2 0x773 JUMP JUMPDEST SWAP7 POP POP PUSH1 0x20 PUSH2 0x827 DUP10 DUP3 DUP11 ADD PUSH2 0x7BF JUMP JUMPDEST SWAP6 POP POP PUSH1 0x40 DUP8 ADD CALLDATALOAD PUSH8 0xFFFFFFFFFFFFFFFF DUP2 GT ISZERO PUSH2 0x848 JUMPI PUSH2 0x847 PUSH2 0x660 JUMP JUMPDEST JUMPDEST PUSH2 0x854 DUP10 DUP3 DUP11 ADD PUSH2 0x773 JUMP JUMPDEST SWAP5 POP POP PUSH1 0x60 PUSH2 0x865 DUP10 DUP3 DUP11 ADD PUSH2 0x7BF JUMP JUMPDEST SWAP4 POP POP PUSH1 0x80 DUP8 ADD CALLDATALOAD PUSH8 0xFFFFFFFFFFFFFFFF DUP2 GT ISZERO PUSH2 0x886 JUMPI PUSH2 0x885 PUSH2 0x660 JUMP JUMPDEST JUMPDEST PUSH2 0x892 DUP10 DUP3 DUP11 ADD PUSH2 0x773 JUMP JUMPDEST SWAP3 POP POP PUSH1 0xA0 PUSH2 0x8A3 DUP10 DUP3 DUP11 ADD PUSH2 0x7BF JUMP JUMPDEST SWAP2 POP POP SWAP3 SWAP6 POP SWAP3 SWAP6 POP SWAP3 SWAP6 JUMP JUMPDEST PUSH0 DUP2 MLOAD SWAP1 POP SWAP2 SWAP1 POP JUMP JUMPDEST PUSH0 DUP3 DUP3 MSTORE PUSH1 0x20 DUP3 ADD SWAP1 POP SWAP3 SWAP2 POP POP JUMP JUMPDEST PUSH0 JUMPDEST DUP4 DUP2 LT ISZERO PUSH2 0x8E7 JUMPI DUP1 DUP3 ADD MLOAD DUP2 DUP5 ADD MSTORE PUSH1 0x20 DUP2 ADD SWAP1 POP PUSH2 0x8CC JUMP JUMPDEST PUSH0 DUP5 DUP5 ADD MSTORE POP POP POP POP JUMP JUMPDEST PUSH0 PUSH2 0x8FC DUP3 PUSH2 0x8B0 JUMP JUMPDEST PUSH2 0x906 DUP2 DUP6 PUSH2 0x8BA JUMP JUMPDEST SWAP4 POP PUSH2 0x916 DUP2 DUP6 PUSH1 0x20 DUP7 ADD PUSH2 0x8CA JUMP JUMPDEST PUSH2 0x91F DUP2 PUSH2 0x66C JUMP JUMPDEST DUP5 ADD SWAP2 POP POP SWAP3 SWAP2 POP POP JUMP JUMPDEST PUSH0 PUSH1 0x20 DUP3 ADD SWAP1 POP DUP2 DUP2 SUB PUSH0 DUP4 ADD MSTORE PUSH2 0x942 DUP2 DUP5 PUSH2 0x8F2 JUMP JUMPDEST SWAP1 POP SWAP3 SWAP2 POP POP JUMP JUMPDEST PUSH0 DUP1 PUSH1 0x40 DUP4 DUP6 SUB SLT ISZERO PUSH2 0x960 JUMPI PUSH2 0x95F PUSH2 0x65C JUMP JUMPDEST JUMPDEST PUSH0 PUSH2 0x96D DUP6 DUP3 DUP7 ADD PUSH2 0x7BF JUMP JUMPDEST SWAP3 POP POP PUSH1 0x20 PUSH2 0x97E DUP6 DUP3 DUP7 ADD PUSH2 0x7BF JUMP JUMPDEST SWAP2 POP POP SWAP3 POP SWAP3 SWAP1 POP JUMP JUMPDEST PUSH0 PUSH20 0xFFFFFFFFFFFFFFFFFFFFFFFFFFFFFFFFFFFFFFFF DUP3 AND SWAP1 POP SWAP2 SWAP1 POP JUMP JUMPDEST PUSH0 PUSH2 0x9B1 DUP3 PUSH2 0x988 JUMP JUMPDEST SWAP1 POP SWAP2 SWAP1 POP JUMP JUMPDEST PUSH2 0x9C1 DUP2 PUSH2 0x9A7 JUMP JUMPDEST DUP2 EQ PUSH2 0x9CB JUMPI PUSH0 DUP1 REVERT JUMPDEST POP JUMP JUMPDEST PUSH0 DUP2 CALLDATALOAD SWAP1 POP PUSH2 0x9DC DUP2 PUSH2 0x9B8 JUMP JUMPDEST SWAP3 SWAP2 POP POP JUMP JUMPDEST PUSH0 PUSH1 0x20 DUP3 DUP5 SUB SLT ISZERO PUSH2 0x9F7 JUMPI PUSH2 0x9F6 PUSH2 0x65C JUMP JUMPDEST JUMPDEST PUSH0 PUSH2 0xA04 DUP5 DUP3 DUP6 ADD PUSH2 0x9CE JUMP JUMPDEST SWAP2 POP POP SWAP3 SWAP2 POP POP JUMP JUMPDEST PUSH0 PUSH1 0x20 DUP3 DUP5 SUB SLT ISZERO PUSH2 0xA22 JUMPI PUSH2 0xA21 PUSH2 0x65C JUMP JUMPDEST JUMPDEST PUSH0 PUSH2 0xA2F DUP5 DUP3 DUP6 ADD PUSH2 0x7BF JUMP JUMPDEST SWAP2 POP POP SWAP3 SWAP2 POP POP JUMP JUMPDEST PUSH0 DUP1 PUSH1 0x40 DUP4 DUP6 SUB SLT ISZERO PUSH2 0xA4E JUMPI PUSH2 0xA4D PUSH2 0x65C JUMP JUMPDEST JUMPDEST PUSH0 PUSH2 0xA5B DUP6 DUP3 DUP7 ADD PUSH2 0x9CE JUMP JUMPDEST SWAP3 POP POP PUSH1 0x20 DUP4 ADD CALLDATALOAD PUSH8 0xFFFFFFFFFFFFFFFF DUP2 GT ISZERO PUSH2 0xA7C JUMPI PUSH2 0xA7B PUSH2 0x660 JUMP JUMPDEST JUMPDEST PUSH2 0xA88 DUP6 DUP3 DUP7 ADD PUSH2 0x773 JUMP JUMPDEST SWAP2 POP POP SWAP3 POP SWAP3 SWAP1 POP JUMP JUMPDEST PUSH0 DUP2 ISZERO ISZERO SWAP1 POP SWAP2 SWAP1 POP JUMP JUMPDEST PUSH2 0xAA6 DUP2 PUSH2 0xA92 JUMP JUMPDEST DUP3 MSTORE POP POP JUMP JUMPDEST PUSH0 PUSH1 0x20 DUP3 ADD SWAP1 POP PUSH2 0xABF PUSH0 DUP4 ADD DUP5 PUSH2 0xA9D JUMP JUMPDEST SWAP3 SWAP2 POP POP JUMP JUMPDEST PUSH0 DUP2 SWAP1 POP SWAP3 SWAP2 POP POP JUMP JUMPDEST PUSH0 PUSH2 0xAD9 DUP3 PUSH2 0x8B0 JUMP JUMPDEST PUSH2 0xAE3 DUP2 DUP6 PUSH2 0xAC5 JUMP JUMPDEST SWAP4 POP PUSH2 0xAF3 DUP2 DUP6 PUSH1 0x20 DUP7 ADD PUSH2 0x8CA JUMP JUMPDEST DUP1 DUP5 ADD SWAP2 POP POP SWAP3 SWAP2 POP POP JUMP JUMPDEST PUSH0 PUSH2 0xB0A DUP3 DUP10 PUSH2 0xACF JUMP JUMPDEST SWAP2 POP PUSH2 0xB16 DUP3 DUP9 PUSH2 0xACF JUMP JUMPDEST SWAP2 POP PUSH2 0xB22 DUP3 DUP8 PUSH2 0xACF JUMP JUMPDEST SWAP2 POP PUSH2 0xB2E DUP3 DUP7 PUSH2 0xACF JUMP JUMPDEST SWAP2 POP PUSH2 0xB3A DUP3 DUP6 PUSH2 0xACF JUMP JUMPDEST SWAP2 POP PUSH2 0xB46 DUP3 DUP5 PUSH2 0xACF JUMP JUMPDEST SWAP2 POP DUP2 SWAP1 POP SWAP8 SWAP7 POP POP POP POP POP POP POP JUMP JUMPDEST PUSH32 0x4E487B7100000000000000000000000000000000000000000000000000000000 PUSH0 MSTORE PUSH1 0x11 PUSH1 0x4 MSTORE PUSH1 0x24 PUSH0 REVERT JUMPDEST PUSH0 DUP2 PUSH1 0x1 SHR SWAP1 POP SWAP2 SWAP1 POP JUMP JUMPDEST PUSH0 DUP1 DUP3 SWAP2 POP DUP4 SWAP1 POP JUMPDEST PUSH1 0x1 DUP6 GT ISZERO PUSH2 0xBD8 JUMPI DUP1 DUP7 DIV DUP2 GT ISZERO PUSH2 0xBB4 JUMPI PUSH2 0xBB3 PUSH2 0xB56 JUMP JUMPDEST JUMPDEST PUSH1 0x1 DUP6 AND ISZERO PUSH2 0xBC3 JUMPI DUP1 DUP3 MUL SWAP2 POP JUMPDEST DUP1 DUP2 MUL SWAP1 POP PUSH2 0xBD1 DUP6 PUSH2 0xB83 JUMP JUMPDEST SWAP5 POP PUSH2 0xB98 JUMP JUMPDEST SWAP5 POP SWAP5 SWAP3 POP POP POP JUMP JUMPDEST PUSH0 DUP3 PUSH2 0xBF0 JUMPI PUSH1 0x1 SWAP1 POP PUSH2 0xCAB JUMP JUMPDEST DUP2 PUSH2 0xBFD JUMPI PUSH0 SWAP1 POP PUSH2 0xCAB JUMP JUMPDEST DUP2 PUSH1 0x1 DUP2 EQ PUSH2 0xC13 JUMPI PUSH1 0x2 DUP2 EQ PUSH2 0xC1D JUMPI PUSH2 0xC4C JUMP JUMPDEST PUSH1 0x1 SWAP2 POP POP PUSH2 0xCAB JUMP JUMPDEST PUSH1 0xFF DUP5 GT ISZERO PUSH2 0xC2F JUMPI PUSH2 0xC2E PUSH2 0xB56 JUMP JUMPDEST JUMPDEST DUP4 PUSH1 0x2 EXP SWAP2 POP DUP5 DUP3 GT ISZERO PUSH2 0xC46 JUMPI PUSH2 0xC45 PUSH2 0xB56 JUMP JUMPDEST JUMPDEST POP PUSH2 0xCAB JUMP JUMPDEST POP PUSH1 0x20 DUP4 LT PUSH2 0x133 DUP4 LT AND PUSH1 0x4E DUP5 LT PUSH1 0xB DUP5 LT AND OR ISZERO PUSH2 0xC81 JUMPI DUP3 DUP3 EXP SWAP1 POP DUP4 DUP2 GT ISZERO PUSH2 0xC7C JUMPI PUSH2 0xC7B PUSH2 0xB56 JUMP JUMPDEST JUMPDEST PUSH2 0xCAB JUMP JUMPDEST PUSH2 0xC8E DUP5 DUP5 DUP5 PUSH1 0x1 PUSH2 0xB8F JUMP JUMPDEST SWAP3 POP SWAP1 POP DUP2 DUP5 DIV DUP2 GT ISZERO PUSH2 0xCA5 JUMPI PUSH2 0xCA4 PUSH2 0xB56 JUMP JUMPDEST JUMPDEST DUP2 DUP2 MUL SWAP1 POP JUMPDEST SWAP4 SWAP3 POP POP POP JUMP JUMPDEST PUSH0 PUSH2 0xCBC DUP3 PUSH2 0x7A0 JUMP JUMPDEST SWAP2 POP PUSH2 0xCC7 DUP4 PUSH2 0x7A0 JUMP JUMPDEST SWAP3 POP PUSH2 0xCF4 PUSH32 0xFFFFFFFFFFFFFFFFFFFFFFFFFFFFFFFFFFFFFFFFFFFFFFFFFFFFFFFFFFFFFFFF DUP5 DUP5 PUSH2 0xBE1 JUMP JUMPDEST SWAP1 POP SWAP3 SWAP2 POP POP JUMP JUMPDEST PUSH32 0x4E487B7100000000000000000000000000000000000000000000000000000000 PUSH0 MSTORE PUSH1 0x12 PUSH1 0x4 MSTORE PUSH1 0x24 PUSH0 REVERT JUMPDEST PUSH0 PUSH2 0xD33 DUP3 PUSH2 0x7A0 JUMP JUMPDEST SWAP2 POP PUSH2 0xD3E DUP4 PUSH2 0x7A0 JUMP JUMPDEST SWAP3 POP DUP3 PUSH2 0xD4E JUMPI PUSH2 0xD4D PUSH2 0xCFC JUMP JUMPDEST JUMPDEST DUP3 DUP3 DIV SWAP1 POP SWAP3 SWAP2 POP POP JUMP JUMPDEST PUSH0 PUSH2 0xD63 DUP3 PUSH2 0x7A0 JUMP JUMPDEST SWAP2 POP PUSH2 0xD6E DUP4 PUSH2 0x7A0 JUMP JUMPDEST SWAP3 POP DUP3 PUSH2 0xD7E JUMPI PUSH2 0xD7D PUSH2 0xCFC JUMP JUMPDEST JUMPDEST DUP3 DUP3 MOD SWAP1 POP SWAP3 SWAP2 POP POP JUMP JUMPDEST PUSH32 0x2E00000000000000000000000000000000000000000000000000000000000000 PUSH0 DUP3 ADD MSTORE POP JUMP JUMPDEST PUSH0 PUSH2 0xDBD PUSH1 0x1 DUP4 PUSH2 0xAC5 JUMP JUMPDEST SWAP2 POP PUSH2 0xDC8 DUP3 PUSH2 0xD89 JUMP JUMPDEST PUSH1 0x1 DUP3 ADD SWAP1 POP SWAP2 SWAP1 POP JUMP JUMPDEST PUSH0 PUSH2 0xDDE DUP3 DUP6 PUSH2 0xACF JUMP JUMPDEST SWAP2 POP PUSH2 0xDE9 DUP3 PUSH2 0xDB1 JUMP JUMPDEST SWAP2 POP PUSH2 0xDF5 DUP3 DUP5 PUSH2 0xACF JUMP JUMPDEST SWAP2 POP DUP2 SWAP1 POP SWAP4 SWAP3 POP POP POP JUMP JUMPDEST PUSH32 0x4E487B7100000000000000000000000000000000000000000000000000000000 PUSH0 MSTORE PUSH1 0x22 PUSH1 0x4 MSTORE PUSH1 0x24 PUSH0 REVERT JUMPDEST PUSH0 PUSH1 0x2 DUP3 DIV SWAP1 POP PUSH1 0x1 DUP3 AND DUP1 PUSH2 0xE45 JUMPI PUSH1 0x7F DUP3 AND SWAP2 POP JUMPDEST PUSH1 0x20 DUP3 LT DUP2 SUB PUSH2 0xE58 JUMPI PUSH2 0xE57 PUSH2 0xE01 JUMP JUMPDEST JUMPDEST POP SWAP2 SWAP1 POP JUMP JUMPDEST PUSH32 0x495046532068617368206E6F7420666F756E6420666F7220746865206163636F PUSH0 DUP3 ADD MSTORE PUSH32 0x756E742E20506C6561736520736176652049504653486173682061626F757420 PUSH1 0x20 DUP3 ADD MSTORE PUSH32 0x74686973206163636F756E742E00000000000000000000000000000000000000 PUSH1 0x40 DUP3 ADD MSTORE POP JUMP JUMPDEST PUSH0 PUSH2 0xEDE PUSH1 0x4D DUP4 PUSH2 0x8BA JUMP JUMPDEST SWAP2 POP PUSH2 0xEE9 DUP3 PUSH2 0xE5E JUMP JUMPDEST PUSH1 0x60 DUP3 ADD SWAP1 POP SWAP2 SWAP1 POP JUMP JUMPDEST PUSH0 PUSH1 0x20 DUP3 ADD SWAP1 POP DUP2 DUP2 SUB PUSH0 DUP4 ADD MSTORE PUSH2 0xF0B DUP2 PUSH2 0xED2 JUMP JUMPDEST SWAP1 POP SWAP2 SWAP1 POP JUMP JUMPDEST PUSH0 PUSH2 0xF1C DUP3 PUSH2 0x7A0 JUMP JUMPDEST SWAP2 POP PUSH32 0xFFFFFFFFFFFFFFFFFFFFFFFFFFFFFFFFFFFFFFFFFFFFFFFFFFFFFFFFFFFFFFFF DUP3 SUB PUSH2 0xF4E JUMPI PUSH2 0xF4D PUSH2 0xB56 JUMP JUMPDEST JUMPDEST PUSH1 0x1 DUP3 ADD SWAP1 POP SWAP2 SWAP1 POP JUMP JUMPDEST PUSH0 PUSH2 0xF63 DUP3 PUSH2 0x7A0 JUMP JUMPDEST SWAP2 POP PUSH2 0xF6E DUP4 PUSH2 0x7A0 JUMP JUMPDEST SWAP3 POP DUP3 DUP3 SUB SWAP1 POP DUP2 DUP2 GT ISZERO PUSH2 0xF86 JUMPI PUSH2 0xF85 PUSH2 0xB56 JUMP JUMPDEST JUMPDEST SWAP3 SWAP2 POP POP JUMP JUMPDEST PUSH0 PUSH2 0xF96 DUP3 PUSH2 0x7A0 JUMP JUMPDEST SWAP2 POP PUSH2 0xFA1 DUP4 PUSH2 0x7A0 JUMP JUMPDEST SWAP3 POP DUP3 DUP3 ADD SWAP1 POP DUP1 DUP3 GT ISZERO PUSH2 0xFB9 JUMPI PUSH2 0xFB8 PUSH2 0xB56 JUMP JUMPDEST JUMPDEST SWAP3 SWAP2 POP POP JUMP JUMPDEST PUSH32 0x4E487B7100000000000000000000000000000000000000000000000000000000 PUSH0 MSTORE PUSH1 0x32 PUSH1 0x4 MSTORE PUSH1 0x24 PUSH0 REVERT JUMPDEST PUSH0 DUP2 SWAP1 POP DUP2 PUSH0 MSTORE PUSH1 0x20 PUSH0 KECCAK256 SWAP1 POP SWAP2 SWAP1 POP JUMP JUMPDEST PUSH0 PUSH1 0x20 PUSH1 0x1F DUP4 ADD DIV SWAP1 POP SWAP2 SWAP1 POP JUMP JUMPDEST PUSH0 DUP3 DUP3 SHL SWAP1 POP SWAP3 SWAP2 POP POP JUMP JUMPDEST PUSH0 PUSH1 0x8 DUP4 MUL PUSH2 0x1048 PUSH32 0xFFFFFFFFFFFFFFFFFFFFFFFFFFFFFFFFFFFFFFFFFFFFFFFFFFFFFFFFFFFFFFFF DUP3 PUSH2 0x100D JUMP JUMPDEST PUSH2 0x1052 DUP7 DUP4 PUSH2 0x100D JUMP JUMPDEST SWAP6 POP DUP1 NOT DUP5 AND SWAP4 POP DUP1 DUP7 AND DUP5 OR SWAP3 POP POP POP SWAP4 SWAP3 POP POP POP JUMP JUMPDEST PUSH0 DUP2 SWAP1 POP SWAP2 SWAP1 POP JUMP JUMPDEST PUSH0 PUSH2 0x108D PUSH2 0x1088 PUSH2 0x1083 DUP5 PUSH2 0x7A0 JUMP JUMPDEST PUSH2 0x106A JUMP JUMPDEST PUSH2 0x7A0 JUMP JUMPDEST SWAP1 POP SWAP2 SWAP1 POP JUMP JUMPDEST PUSH0 DUP2 SWAP1 POP SWAP2 SWAP1 POP JUMP JUMPDEST PUSH2 0x10A6 DUP4 PUSH2 0x1073 JUMP JUMPDEST PUSH2 0x10BA PUSH2 0x10B2 DUP3 PUSH2 0x1094 JUMP JUMPDEST DUP5 DUP5 SLOAD PUSH2 0x1019 JUMP JUMPDEST DUP3 SSTORE POP POP POP POP JUMP JUMPDEST PUSH0 SWAP1 JUMP JUMPDEST PUSH2 0x10CE PUSH2 0x10C2 JUMP JUMPDEST PUSH2 0x10D9 DUP2 DUP5 DUP5 PUSH2 0x109D JUMP JUMPDEST POP POP POP JUMP JUMPDEST JUMPDEST DUP2 DUP2 LT ISZERO PUSH2 0x10FC JUMPI PUSH2 0x10F1 PUSH0 DUP3 PUSH2 0x10C6 JUMP JUMPDEST PUSH1 0x1 DUP2 ADD SWAP1 POP PUSH2 0x10DF JUMP JUMPDEST POP POP JUMP JUMPDEST PUSH1 0x1F DUP3 GT ISZERO PUSH2 0x1141 JUMPI PUSH2 0x1112 DUP2 PUSH2 0xFEC JUMP JUMPDEST PUSH2 0x111B DUP5 PUSH2 0xFFE JUMP JUMPDEST DUP2 ADD PUSH1 0x20 DUP6 LT ISZERO PUSH2 0x112A JUMPI DUP2 SWAP1 POP JUMPDEST PUSH2 0x113E PUSH2 0x1136 DUP6 PUSH2 0xFFE JUMP JUMPDEST DUP4 ADD DUP3 PUSH2 0x10DE JUMP JUMPDEST POP POP JUMPDEST POP POP POP JUMP JUMPDEST PUSH0 DUP3 DUP3 SHR SWAP1 POP SWAP3 SWAP2 POP POP JUMP JUMPDEST PUSH0 PUSH2 0x1161 PUSH0 NOT DUP5 PUSH1 0x8 MUL PUSH2 0x1146 JUMP JUMPDEST NOT DUP1 DUP4 AND SWAP2 POP POP SWAP3 SWAP2 POP POP JUMP JUMPDEST PUSH0 PUSH2 0x1179 DUP4 DUP4 PUSH2 0x1152 JUMP JUMPDEST SWAP2 POP DUP3 PUSH1 0x2 MUL DUP3 OR SWAP1 POP SWAP3 SWAP2 POP POP JUMP JUMPDEST PUSH2 0x1192 DUP3 PUSH2 0x8B0 JUMP JUMPDEST PUSH8 0xFFFFFFFFFFFFFFFF DUP2 GT ISZERO PUSH2 0x11AB JUMPI PUSH2 0x11AA PUSH2 0x67C JUMP JUMPDEST JUMPDEST PUSH2 0x11B5 DUP3 SLOAD PUSH2 0xE2E JUMP JUMPDEST PUSH2 0x11C0 DUP3 DUP3 DUP6 PUSH2 0x1100 JUMP JUMPDEST PUSH0 PUSH1 0x20 SWAP1 POP PUSH1 0x1F DUP4 GT PUSH1 0x1 DUP2 EQ PUSH2 0x11F1 JUMPI PUSH0 DUP5 ISZERO PUSH2 0x11DF JUMPI DUP3 DUP8 ADD MLOAD SWAP1 POP JUMPDEST PUSH2 0x11E9 DUP6 DUP3 PUSH2 0x116E JUMP JUMPDEST DUP7 SSTORE POP PUSH2 0x1250 JUMP JUMPDEST PUSH1 0x1F NOT DUP5 AND PUSH2 0x11FF DUP7 PUSH2 0xFEC JUMP JUMPDEST PUSH0 JUMPDEST DUP3 DUP2 LT ISZERO PUSH2 0x1226 JUMPI DUP5 DUP10 ADD MLOAD DUP3 SSTORE PUSH1 0x1 DUP3 ADD SWAP2 POP PUSH1 0x20 DUP6 ADD SWAP5 POP PUSH1 0x20 DUP2 ADD SWAP1 POP PUSH2 0x1201 JUMP JUMPDEST DUP7 DUP4 LT ISZERO PUSH2 0x1243 JUMPI DUP5 DUP10 ADD MLOAD PUSH2 0x123F PUSH1 0x1F DUP10 AND DUP3 PUSH2 0x1152 JUMP JUMPDEST DUP4 SSTORE POP JUMPDEST PUSH1 0x1 PUSH1 0x2 DUP9 MUL ADD DUP9 SSTORE POP POP POP JUMPDEST POP POP POP POP POP POP JUMP INVALID LOG2 PUSH5 0x6970667358 0x22 SLT KECCAK256 0xCB PUSH16 0x2901740AB46108C0818576CAFC2B4B7A AND SWAP13 0xF7 PUSH17 0x2E08A262B4D8342B9B0164736F6C634300 ADDMOD EQ STOP CALLER "
		},
		"gasEstimates": {
			"creation": {
				"codeDepositCost": "950000",
				"executionCost": "986",
				"totalCost": "950986"
			},
			"external": {
				"decimalToString(uint256,uint256)": "infinite",
				"generateIPFSHash(string,uint256,string,uint256,string,uint256)": "infinite",
				"getIPFSHash(address)": "infinite",
				"ipfsHashes(address)": "infinite",
				"saveIPFSHash(address,string)": "infinite",
				"uintToString(uint256)": "infinite"
			}
		},
		"methodIdentifiers": {
			"decimalToString(uint256,uint256)": "75647ac6",
			"generateIPFSHash(string,uint256,string,uint256,string,uint256)": "4a9760e1",
			"getIPFSHash(address)": "cb0ab425",
			"ipfsHashes(address)": "e1e322ed",
			"saveIPFSHash(address,string)": "f0faed43",
			"uintToString(uint256)": "e9395679"
		}
	},
	"abi": [
		{
			"inputs": [
				{
					"internalType": "uint256",
					"name": "value",
					"type": "uint256"
				},
				{
					"internalType": "uint256",
					"name": "decimals",
					"type": "uint256"
				}
			],
			"name": "decimalToString",
			"outputs": [
				{
					"internalType": "string",
					"name": "",
					"type": "string"
				}
			],
			"stateMutability": "pure",
			"type": "function"
		},
		{
			"inputs": [
				{
					"internalType": "string",
					"name": "name",
					"type": "string"
				},
				{
					"internalType": "uint256",
					"name": "studentID",
					"type": "uint256"
				},
				{
					"internalType": "string",
					"name": "major",
					"type": "string"
				},
				{
					"internalType": "uint256",
					"name": "gpa",
					"type": "uint256"
				},
				{
					"internalType": "string",
					"name": "company",
					"type": "string"
				},
				{
					"internalType": "uint256",
					"name": "balance",
					"type": "uint256"
				}
			],
			"name": "generateIPFSHash",
			"outputs": [
				{
					"internalType": "string",
					"name": "",
					"type": "string"
				}
			],
			"stateMutability": "pure",
			"type": "function"
		},
		{
			"inputs": [
				{
					"internalType": "address",
					"name": "account",
					"type": "address"
				}
			],
			"name": "getIPFSHash",
			"outputs": [
				{
					"internalType": "string",
					"name": "",
					"type": "string"
				}
			],
			"stateMutability": "view",
			"type": "function"
		},
		{
			"inputs": [
				{
					"internalType": "address",
					"name": "",
					"type": "address"
				}
			],
			"name": "ipfsHashes",
			"outputs": [
				{
					"internalType": "string",
					"name": "",
					"type": "string"
				}
			],
			"stateMutability": "view",
			"type": "function"
		},
		{
			"inputs": [
				{
					"internalType": "address",
					"name": "account",
					"type": "address"
				},
				{
					"internalType": "string",
					"name": "ipfsHash",
					"type": "string"
				}
			],
			"name": "saveIPFSHash",
			"outputs": [
				{
					"internalType": "bool",
					"name": "",
					"type": "bool"
				}
			],
			"stateMutability": "nonpayable",
			"type": "function"
		},
		{
			"inputs": [
				{
					"internalType": "uint256",
					"name": "value",
					"type": "uint256"
				}
			],
			"name": "uintToString",
			"outputs": [
				{
					"internalType": "string",
					"name": "",
					"type": "string"
				}
			],
			"stateMutability": "pure",
			"type": "function"
		}
	]
}